:020000040800F2
:10000000F006002045010008BF1A00083F1900084B
:10001000BD1A0008D9060008CD1E00080000000027
:10002000000000000000000000000000C31A0008EB
:10003000DB06000800000000C11A0008C51A00080D
:100040005F0100085F0100085F0100085F01000810
:100050005F0100085F0100085F0100085F01000800
:100060005F0100085F0100085F0100085F010008F0
:100070005F0100085F0100085F0100085F010008E0
:100080005F0100085F0100085F0100085F010008D0
:100090005F0100085F0100085F0100085F010008C0
:1000A0005F0100085F0100085F0100085F010008B0
:1000B000291B00085F0100085F0100085F010008BC
:1000C0005F0100085F0100085F0100085F01000890
:1000D0005F010008B51E0008C11E00085F0100088E
:1000E0005F0100085F0100085F0100085F01000870
:1000F0005F0100085F0100085F0100085F01000860
:100100005F0100085F0100085F0100085F0100084F
:100110005F0100085F0100085F0100085F0100083F
:100120005F0100085F0100085F0100085F0100082F
:10013000DFF80CD000F040FA00480047DD27000847
:10014000F00600200648804706480047FEE7FEE725
:10015000FEE7FEE7FEE7FEE7FEE7FEE7FEE7FEE777
:10016000271B000831010008202A04DB203A21FA6D
:1001700002F00021704721FA02F3D040C2F12002C0
:100180009140084319467047D2B201E000F8012BB4
:10019000491EFBD270470022F6E710B513460A4607
:1001A00004461946FFF7F0FF204610BD421C10F828
:1001B000011B0029FBD1801A704730B50B46014660
:1001C00000202022012409E021FA02F59D4205D3F6
:1001D00003FA02F5491B04FA02F52844151EA2F1A0
:1001E0000102F1DC30BD2DE9F05F054600209246AA
:1001F0009B4688460646814640241BE028464146E9
:1002000047462246FFF7B0FF53465A46C01A91416F
:1002100010D311461846224600F0E0F92D1A67EB7C
:1002200001084F4622460120002100F0D7F917EBC4
:1002300000094E41201EA4F10104DFDC484631468E
:100240002A464346BDE8F09F2DE9FE4F804681EAED
:100250000300C00F0C46009021F0004123F0004540
:10026000B8EB0200A94105D24046214690461C4603
:100270000B46024623F00040104347D0270DC7F33A
:100280000A00C3F30A510290401A019040286BDA29
:10029000C3F3130040F4801B0098924620B1002362
:1002A000D2EB030A63EB0B0B01985946C0F14002F5
:1002B000504600F093F906460D4650465946019ABD
:1002C00000F09BF910EB08006141002487EA11520D
:1002D00084EAE7731A4340D0009A62B3019A012A74
:1002E0004FEA075215DC001B61EB02014FF00042A0
:1002F00002EA0752CDE90042001C41F58011324666
:100300002B4600F09BF903B0BDE8F08F4046214634
:10031000F9E7001B61EB0201001C41F58013001896
:100320005B412018A2F5001747EB030140EAD570A6
:10033000B6196D4111E06D084FEA360645EAC07501
:100340004FEA0752001B61EB0201001C41F58011CE
:1003500049084FEA30000019514132462B4603B09C
:10036000BDE8F04F00F05BB9009801224000002387
:10037000D0EB020263EBE073009821464FEAE07491
:10038000B8EB000061EB0401E9E783F000435BE7B1
:1003900081F0004158E72DE9FE4F81EA030404F0A3
:1003A000004421F0004100944FF0000B23F0004383
:1003B00050EA01045ED052EA03045BD0C3F30A544E
:1003C000C1F30A552C44A4F2F3340194A0FB025467
:1003D000C1F3130141F48011C3F3130343F48013F9
:1003E00001FB024400FB034E840A970A44EA81544D
:1003F00047EA8357A4FB076802958D0A05FB07852A
:100400004FEA932C04FB0C542705029D4FEA065833
:1004100047EA1637B5EB08056EEB070C870E920E10
:1004200047EA811742EA8312A7FB0201B6EB0B01F0
:1004300064EB00042B0D43EA0C335E1844EB1C50B4
:10044000DA465146E7FB0201C5F313044FEA0B33CA
:1004500043EA14534FEA0432019C43EA0603A4F131
:100460000C040294009CCDE900B400F0E7F803B05E
:10047000BDE8F08F00200146F9E72DE9F04D81EA53
:10048000030404F0004B21F0004514464FF0000A2D
:1004900023F0004150EA050220D054EA01021DD0A9
:1004A000C5F30A570246C5F31303C1F31300C1F3A2
:1004B0000A5640F4801543F48013A7EB0608101B7E
:1004C000D64608F2FD3873EB050002D308F10108A7
:1004D00001E092185B41B8F1000F03DA00200146F9
:1004E000BDE8F08D00204FF48011064684460EE0F2
:1004F000171B73EB050705D3121B63EB05030643BC
:100500004CEA010C49084FEA300092185B4150EA6E
:100510000107EDD152EA030012D082EA040083EA17
:100520000501084305D0101BAB4106D20122002370
:1005300006E000224FF0004302E06FF0010253108A
:100540001AEB06004CEB085110EB0A0041EB0B01D3
:10055000BDE8F04D00F063B8C1F30A52C1F31301D6
:1005600040F2FF3341F480119A4202DA0020014642
:10057000704740F233439A42A2F2334202DC5242C5
:10058000FFF7F2BD00F02AB830B5041E71F1000487
:1005900004DB4FF00044404264EB0101141E73F190
:1005A000000405DB1C464FF00043524263EB04039A
:1005B000994208BF904230BD064C074D06E0E06806
:1005C00040F0010394E8070098471034AC42F6D39A
:1005D000FFF7B2FD6029000880290008202A04DB0B
:1005E000203A00FA02F1002070479140C2F1200346
:1005F00020FA03F3194390407047202A06DBCB17FB
:10060000203A41FA02F043EAE07306E041FA02F3CD
:10061000D040C2F12002914008431946704710B5FE
:10062000141E73F1000408DA401C41F10001921815
:100630005B411A4301D120F0010010BD2DE9F04DBE
:1006400092469B4611B1B1FA81F202E0B0FA80F213
:1006500020329046FFF7C2FF04460F4640EA0A00E8
:1006600041EA0B0153465A46084313D0114653EA58
:10067000010019D0C8F140025046FFF775FD05464C
:100680000E46504659464246FFF7A8FF084305D09C
:10069000012004E020463946BDE8F08D00200543E6
:1006A00046EAE0762C4337430A986305E40AA0EB58
:1006B00008000022FD0A44EA47540A3002D500200F
:1006C0000146E9E7010510196941DDE9084500190E
:1006D0006941BDE8F04DA2E7FEE7704772B6FEE75C
:1006E00010B590F821100022022905D00421816361
:1006F00080F82020012010BD01680B6823F00E0354
:100700000B6001680B6823F001030B6090F8403028
:10071000C46B012101FA03F3636080F8211080F8B3
:100720002020104610BD00002DE9F05F90F8211048
:100730000024022903D004218163012485E001689B
:100740000A6822F00E020A6001680A6822F00102BB
:100750000A603F4E3E4FB215DFF8F4C0DFF8F0906C
:10076000DFF8ECA0DFF8E8B0DFF8E4E00168783FFC
:1007700013011502ACF1640CA9F15009AAF13C0A6D
:10078000ABF1280BAEF1140E4FF48018B14227D90B
:10079000B9420ED0614512D049451DD0514518D0FF
:1007A000594518D0714501D1424615E0294EB14254
:1007B00001D1012210E0274E1436B14201D110229E
:1007C0000AE0244E2836B14206D0224A3C329142F9
:1007D00001D11A4600E02A461E49091F0A602BE093
:1007E000B94213D0614517D0494522D051451DD09B
:1007F00059451DD0714501D142461AE0B14202D19E
:100800004FF0807215E0134EB14201D1012210E089
:10081000104E1436B14201D110220AE00D4E283696
:10082000B14206D00B4A3C32914201D11A4600E057
:100830002A46074980394A60012180F821100021A9
:1008400080F82010416B01B188472046BDE8F09F39
:10085000800002400804024070B5044600F018F918
:100860000546601C02D004480078044400F010F9EA
:10087000401BA042FAD370BD080000202DE9F84FBC
:10088000DFF8C8910024A9F1040B23460F2709F1D2
:10089000040AABF1040ED1E00125A54006EA0502E9
:1008A000AA4276D1DFF8A8C14E68A6EB0C086645CF
:1008B0002BD00DDC032E34D005DC36B3012E19D03D
:1008C000022E2FD11BE0112E16D0122E2AD119E0A4
:1008D000B8F5881F19D006DCB8F5803F15D0B8F5FB
:1008E000801F1FD111E0B8F5001F0ED0B8F5041F0E
:1008F00018D10AE0CB6815E0CB681B1D12E0CB686D
:1009000008330FE0CB680C330CE08B682BB1012B64
:100910004FF0080303D0456104E0042302E00561C1
:1009200000E00023FF2A01D8064601E000F104069A
:100930004FEA840501D9A5F12005D6F8008007FA11
:1009400005FC28EA0C0803FA05F548EA0508C6F88C
:1009500000804D68ED0070D53E4DAE6946F0010651
:10096000AE61AD6924F0030605F0010500953A4D2E
:1009700006EB050CDCF80850A607360F07FA06F858
:1009800025EA0805DFF8D480404503D14FF0000880
:1009900025E052E0DFF8C880404502D14FF0010861
:1009A0001DE0DFF8C080404502D14FF0020816E09C
:1009B000DFF8B480404502D14FF003080FE0DFF8C4
:1009C000AC80404502D14FF0040808E0DFF8A08079
:1009D000404502D14FF0050801E04FF0060808FA43
:1009E00006F848EA0508CCF808804D68D9F8006098
:1009F000ED024D4601D5164300E096432E604D684A
:100A0000DAF80060AD02554601D5164300E0964382
:100A10002E604D68DBF80060AD035D4601D51643DE
:100A200000E096432E604D68DEF80060ED037546E9
:100A300001D5164300E096432E60641C0A681646F2
:100A4000E2407FF429AFBDE8F88F000008040140C0
:100A50000000111000100240000001400008014099
:100A6000000C01400010014000140140001801403A
:100A7000001C0140C26821EA02030A4043EA024125
:100A8000016170470AB1016170470904FBE700008A
:100A90000148806870470000080000200248816813
:100AA000027811448160704708000020074810B5A3
:100AB000016841F010010160032000F06DF8002092
:100AC00000F006F800F024F8002010BD00200240DD
:100AD00070B50D4D04464FF47A712878B1FBF0F0F3
:100AE0000A490968B1FBF0F000F0D4FA48B9102CBB
:100AF00007D200222146501E00F02EF800206C6024
:100B000070BD012070BD000008000020140000200E
:100B1000094808B5816941F001018161816901F0ED
:100B200001010091C16941F08051C161C06900F0CB
:100B30008050009008BD000000100240002809DB32
:100B400000F01F02012191404009800000F1E020E7
:100B5000C0F8001170470000F0B40E4B1B680C4643
:100B6000C3F30223C3F10705042D00D90425191D81
:100B7000072901D2002300E0DB1E012606FA05F159
:100B8000491E214099409E40761E16403143F0BCDC
:100B900001F0B0B90CED00E0064900F0070208686A
:100BA0004FF6FF03184040EA0220034A1043086052
:100BB000704700000CED00E00000FA052DE9F04759
:100BC0000F46050061D0434E306800F00700B84280
:100BD00009D2306820F0070038433060306800F0F8
:100BE0000700B84251D128683B4C810712D5400715
:100BF00003D5606840F4E06060602878000703D5A2
:100C0000606840F4605060606068A96820F0F0009F
:100C1000084360602878C00728D06868012810D091
:100C20002168022810D0890700292EDA616821F096
:100C3000030101436160FFF72BFF804641F28839D1
:100C40000DE021688903EFE78901EDE7FFF720FF59
:100C5000A0EB0801494502D90320BDE8F087606890
:100C6000696800F00C00B0EB810FEFD1306800F044
:100C70000700B8420BD9306820F0070038433060D5
:100C8000306800F00700B84201D00120E5E728787D
:100C9000400705D56068E96820F4E06008436060BB
:100CA0002878000706D56068296920F4605040EA7A
:100CB000C100606000F038F86168084AC1F30311B0
:100CC000515CC8400649086006480068FFF700FF0D
:100CD0000020C2E700200240001002404629000820
:100CE000140000200C0000200448054900684968F1
:100CF000044AC1F30221515CC8407047140000202F
:100D00000010024056290008044805490068496857
:100D1000044AC1F3C221515CC8407047140000204E
:100D200000100240562900080E4A51680E4801F092
:100D30000C03042B11D0082B0FD10C48C1F38343B3
:100D4000C903C05C0AD55168084AC1F34041921EEC
:100D5000515C054A5043B0FBF1F0704704494843E9
:100D6000704700000010024000127A003629000887
:100D700000093D002DE9F84F040070D02078C04DE7
:100D8000C00749D06868C0F38100012807D06868AF
:100D9000C0F38100022809D16868C00306D528681D
:100DA000800339D560680028E7D035E06068B0F589
:100DB000803F0BD010B1B0F5A02F11D0286820F4DF
:100DC00080302860286820F4802002E0286840F401
:100DD00080302860606890B1FFF75AFE06460AE04E
:100DE000286840F480202860F0E700BFFFF750FE3D
:100DF000801B642873D828688003F7D50CE0FFF7C0
:100E000047FE064605E000BFFFF742FE801B642850
:100E1000F0D828688003F7D420789A4E80074FF0E6
:100E200001094FF0000839D5686810F00C0F07D0A1
:100E30006868C0F38100022809D16868C00306D43D
:100E40002868800714D52069012808D110E020699E
:100E5000B0B1C6F80090FFF71BFE074605E00AE1B7
:100E6000FFF716FEC01B0228C4D828688007F7D5F4
:100E70002868616920F0F80040EAC10028600DE0B0
:100E8000C6F80080FFF704FE074604E0FFF700FE07
:100E9000C01B022823D828688007F7D420780007D1
:100EA0002CD57948A169D9B1C0F80090FFF7F0FDC1
:100EB000074604E0FFF7ECFDC01B02280FD8686A64
:100EC0008007F7D571484FF4FA510068B0FBF1F094
:100ED000009000BF0098411E0091FAD20EE080E021
:100EE000C0F80080FFF7D4FD074604E0FFF7D0FD0F
:100EF000C01B022875D8686A8007F7D4207840079D
:100F000060D5E8690027C00008D4E86940F0805047
:100F1000E861E869012700F0805000905C480168B2
:100F2000C90513D40168834641F480710160FFF75D
:100F3000AFFD824606E000BFFFF7AAFDA0EB0A0066
:100F400064284ED8DBF80000C005F5D5E06801281C
:100F50000AD008B1052813D0286A20F001002862C1
:100F6000286A20F0040002E0286A40F001002862AC
:100F7000E06841F2883B98B1FFF78AFD82460BE0BA
:100F8000286A40F004002862EEE700BFFFF780FD0A
:100F9000A0EB0A0159455AD8286A8007F6D50CE01B
:100FA000FFF776FD824605E0FFF772FDA0EB0A0130
:100FB00059454CD8286A8007F6D41FB1E86920F05B
:100FC0008050E861E06988B36968C1F38101022952
:100FD00044D00228C6F8608004D0FFF759FD0446CB
:100FE00038E034E0FFF754FD074604E0FFF750FD1A
:100FF000C01B02282BD828688001F7D4206AB0F5DE
:10100000803F05D16868A16820F40030084368601B
:10101000D4E908010843696821F474110843686041
:10102000C6F86090FFF734FD044606E025E000BFF7
:10103000FFF72EFD001B022809D828688001F7D58C
:101040001BE000BFFFF724FD001B022802D903208C
:10105000BDE8F88F28688001F4D40EE00128F7D0AD
:101060006868226A00F48031914204D1616A00F418
:101070007010884201D00120EAE70020E8E7000074
:10108000001002400000424280044242140000204E
:101090000070004010B5401EB0F1807F01D30120E8
:1010A00010BD4FF0E02460610F21601700F022FFB7
:1010B0000020A06107202061002010BD704770470C
:1010C00070B590F83C20012A2CD0012480F83C40D7
:1010D000022280F83D2003685A689D6822F070065D
:1010E0000A6832435A60104B02689A420ED00F4B86
:1010F0009A420BD0B2F1804F08D00D4B9A4205D0E6
:101100000C4B9A4202D00C4B9A4204D1496825F00C
:1011100080031943916080F83D40002180F83C1025
:10112000084670BD022070BD002C01400034014013
:101130000004004000080040000C004010B504000E
:1011400003D094F83D0010B107E0012010BD00204D
:1011500084F83C00204600F01FF8022084F83D008F
:10116000211D206800F0E6FC012084F8460084F888
:101170003E0084F83F0084F8400084F8410084F881
:10118000420084F8430084F8440084F8450084F861
:101190003D00002010BD000008B50068B0F1804F90
:1011A00012D10A48C16941F00101C161C069002240
:1011B00000F00100009011461C20FFF7CDFCBDE8B7
:1011C00008401C20FFF7BABC08BD00000010024018
:1011D00070B5044690F83C000025012817D0012680
:1011E00084F83C60022084F83D002068826822F088
:1011F000770222F47F4282600868502838D00DDCE4
:1012000020284FD005DC90B3102811D14AE00220ED
:1012100070BD302846D040280AD13BE060282FD04E
:1012200070280DD0B0F5805F03D0B0F5005F12D00C
:10123000012584F83D60002084F83C00284670BDFC
:10124000CB68D1E90121206800F0BAFC20688168F0
:1012500041F0770109E0CB68D1E90121206800F075
:10126000AFFC2068816841F480418160E1E719E0CA
:10127000CA684968206800F0B5FC5021206806E083
:10128000CA684968206800F0BEFC6021206800F050
:10129000A1FCCEE7CA684968206800F0A3FC4021A1
:1012A0002068F4E7226801461046F0E7704770B501
:1012B0000446006801694FF00005C943890715D449
:1012C000C168C943890711D4E91E01610120207753
:1012D000206880698007204602D0FFF7E7FF04E01E
:1012E00000F098F8204600F096F82577206801690C
:1012F000C943490717D4C168C943490713D46FF0DC
:1013000004010161022020772068806910F4407F89
:10131000204602D0FFF7CAFF04E000F07BF8204629
:1013200000F079F8257720680169C943090716D4C8
:10133000C168C943090712D46FF008010161042094
:1013400020772068C0698007204602D0FFF7AEFFF3
:1013500004E000F05FF8204600F05DF82577206893
:101360000169C943C90617D4C168C943C90613D462
:101370006FF010010161082020772068C06910F427
:10138000407F204602D0FFF791FF04E000F042F8D2
:10139000204600F040F8257720680169C943C90755
:1013A00008D1C168C943C90704D1891E016120461B
:1013B00000F032F820680169C943090609D4C16800
:1013C000C943090605D46FF0800101612046FFF78B
:1013D00075FE20680169C943490609D4C168C9433B
:1013E000490605D46FF040010161204600F015F870
:1013F00020680169C94389060BD4C168C9438906BD
:1014000007D46FF0200101612046BDE87040FFF76E
:1014100056BE70BD70477047704770477047704741
:10142000F8B5016804460868CA684B6910F00F0FE8
:101430004FF000055AD003F0010602F490773743CD
:1014400065D0C10705D0D10503D5616C41F001011C
:101450006164410705D5D90703D0616C41F00201F1
:101460006164810705D5D90703D0616C41F004019F
:101470006164010707D502F02001314303D0616C9C
:1014800041F008016164616C00293BD0800604D5FD
:10149000900602D5204600F0F7FB20684069616C99
:1014A000C0F3801001F00801014320462BD000F06A
:1014B000C4FB20684069400621D52068143050E8FC
:1014C000001F21F0400140E80012002AF5D1E06B36
:1014D000A8B16D494163E06BFFF726F9002811D0F0
:1014E000E06B416B01B0BDE8F040084783060ED5C4
:1014F00093060CD52046BDE8F84000F0C5BB204659
:10150000FFF78DFFF8BDFFF78AFF6564F8BD266B16
:101510002023012E7CD1C6067AD5D60678D5086858
:101520004868009048694FF00206400640D5E16BDC
:10153000086840680004000CE8D0A28D8242E5D91A
:10154000E085886920282DD020680C3050E8001FE5
:1015500021F4807140E80012002AF5D1216814318D
:1015600051E8000F20F0010041E80002002AF5D107
:101570002068143050E8001F21F0400140E80012BC
:10158000002AF5D184F84230256320680C3050E8F9
:10159000001F21F0100140E80012002AF5D1E06B95
:1015A000FFF79EF86663A08DE18D401A81B22AE0B4
:1015B000A08DE18D401A81B2E08D0028A6D00029CF
:1015C000A4D022680C3252E8000F20F4907042E858
:1015D0000007002FF5D12068143050E8002F22F0CA
:1015E000010240E80027002FF5D184F8423025633E
:1015F00020680C3050E8002F22F0100240E8002351
:10160000002BF5D166632046FFF708FFF8BDFFE722
:1016100005062BD5150629D594F841002128F5D1CA
:10162000A068B0F5805F01D12069B0B1206A411C8B
:101630002162216800784860E08C401E0004000CA4
:10164000E084E3D12068C16821F08001C160206896
:10165000C16841F04001C160D8E7206A0088C0F34A
:1016600008004860206A801C2062E5E74006CDD56E
:101670005006CBD5CA68204622F04002CA6084F8E2
:10168000413000F05BF9C1E72B1C000870B5040085
:1016900004D094F84100002510B106E0012070BD8F
:1016A00084F84050204600F023F8242084F84100BC
:1016B0002068C16821F40051C160204600F046FB5B
:1016C0002068016921F4904101612068416921F09D
:1016D0002A0141612068C16841F40051C16065641C
:1016E000202084F8410084F842006563002070BD2A
:1016F00070B586B0002400940194029403942E4E99
:1017000003682E49022003222D4DB34226D18B6956
:1017100043F480438B618B6903F4804304938B69AA
:1017200043F004038B618969039201F00401049181
:101730000102CDE9001069462846FFF79FF82815F9
:10174000CDE90004694628460294FFF797F8002285
:1017500002212520FFF700FA252028E0194EB34288
:1017600027D1CB6943F40033CB61CB6903F4003359
:1017700004938B6943F004038B618969039201F040
:10178000040104910421CDE9001069462846FFF7C1
:1017900075F80820CDE90004694628460294FFF751
:1017A0006DF8002202212620FFF7D6F92620FFF748
:1017B000C5F906B070BD00000038014000100240BD
:1017C000000801400044004090F84230202B01D036
:1017D0000220704721B11AB10023036300F012BB4D
:1017E0000120704770B505461D481E4C854216D134
:1017F000217860880D2907D0C0F30B02FF2A06D894
:10180000194B401C995404E040F4004001E040F4BE
:1018100080406080012213491148FFF7D5FF10482E
:10182000483085421AD16178A0880D2907D0C0F3CD
:101830000B02FF2A06D80D4B401C995404E040F4DB
:10184000004001E040F48040A0800649BDE87040BF
:1018500003480122491C4830FFF7B6BF70BD0000A5
:1018600060020020000000206000002060010020D5
:101870002DE9F843044690F841001F4616460D46F0
:10188000202802D00220BDE8F8837DB176B1002087
:101890006064212084F84100FFF7FAF8A6848046AE
:1018A000E684A068B0F5805F02D003E00120EAE79B
:1018B000206910B12E4600250EE000260CE08021A4
:1018C000204600F0BAFAA0B9AEB116F8010B2168B3
:1018D0004860E08C401EE084E08C43464FF00002FC
:1018E00000970028EBD14FF04001204600F0A5FA08
:1018F00030B10320C7E735F8020BC0F30800E6E774
:10190000202084F841000020BDE790F84130202BD2
:1019100001D00220704779B172B101628284C28421
:1019200000214164212180F841100068C16841F024
:101930008001C16000207047012070477047FEE7BA
:101940002DE9F04186B000242448009401940294CB
:101950000394816941F010018161816901F01001F6
:101960000491816941F020018161816901F02001C8
:101970000491816941F004018161816901F00401F0
:101980000491816941F0080181618069144F00F080
:1019900008000490002201213846FFF773F8012265
:1019A000DFF84080160231464046FFF76BF8012011
:1019B00001AA0225009082E8310069463846FEF708
:1019C0005DFF01AA1120009682E831006946404679
:1019D000FEF754FF06B0BDE8F081000000100240A1
:1019E000000C01400008014010B586B000241648E4
:1019F000009401940294039404944FF08041059460
:101A000001600821C0E901144FF6FF71C0E9031419
:101A10008461FFF793FB08B1FEF760FE4FF480503E
:101A2000009069460848FFF7D3FB08B1FEF756FE61
:101A3000049404A904480594FFF742FB002801D050
:101A4000FEF74CFE06B010BD180000200C4810B583
:101A50000A4901604FF4E1314160002181600C22AC
:101A6000C160C0E904128161C161FFF70FFE002867
:101A700003D0BDE81040FEF731BE10BD0038014074
:101A8000600200200C4810B50A4901604FF416515D
:101A90004160002181600C22C160C0E904128161B3
:101AA000C161FFF7F3FD002803D0BDE81040FEF749
:101AB00015BE10BD00440040A8020020FEE7FEE76E
:101AC00070477047FEF7EABF30B58FB028216846EF
:101AD000FEF761FB14210AA8FEF75DFB0121080453
:101AE000CDE900100024029402250491CDE90750AD
:101AF0004FF4E01009906846FFF73CF908B172B660
:101B0000FEE70F20CDE90A054FF48060CDE90C40D7
:101B100002210AA80E94FFF751F8002801D072B6EE
:101B2000FEE70FB030BD70470148FFF7C0BB0000B3
:101B300018000020F0B502681C4B1D4D1D4E1E4FB5
:101B40001E4C4FF0804C984209D0A04207D060450F
:101B500005D0A84203D0B04201D0B84204D122F04F
:101B6000700E4A6842EA0E02984209D0A04207D09D
:101B7000604505D0A84203D0B04201D0B84203D19D
:101B800022F44075CA682A434D6922F080022A4334
:101B900002608A68C2620A688262984201D0A042EA
:101BA00001D10969016301214161F0BD002C0140AF
:101BB0000004004000080040000C004000340140D8
:101BC00010B5846842EA032224F47F440A43224386
:101BD000826010BD826822F070020A4342F0070161
:101BE0008160704710B5036A046A24F0010404623E
:101BF000846924F0F00444EA021423F00A020A4340
:101C00008461026210BD10B5036A046A24F01004F6
:101C10000462846923F0A00324F4704444EA02328D
:101C200043EA01118261016210BD10B5406A0021D2
:101C3000C185C184FFF7F3FB10BD01680C3151E889
:101C4000002F22F4907241E80023002BF5D10168A7
:101C5000143151E8002F22F0010241E80023002B4B
:101C6000F5D1016B012909D101680C3151E8002F30
:101C700022F0100241E80023002BF5D1202180F84A
:101C8000421000210163704708B590F842102229E4
:101C900001D0022008BD82684FF480539A4201D1DE
:101CA000016921B1816A9A421BD04AB10AE00268F7
:101CB000816A5268C2F308020A80816A891C08E0BE
:101CC000026972B10268526802F07F020A70816A8A
:101CD000491C8162C18D491E0904090CC18503D0CC
:101CE0001BE002685268F1E70168CA6822F020022E
:101CF000CA600168CA6822F48072CA6001684A69D1
:101D000022F001024A61202180F842100021416343
:101D1000026B012A03D0FFF765FD002008BD0163B7
:101D200001680C3151E8002F22F0100241E8002335
:101D3000002BF5D101680A68D20602D50A68496805
:101D40000091818DFFF76AFBE7E7000070B504465C
:101D500000680169E26821F4405111430161216981
:101D6000A0680843616908432168CA6841F20C63AE
:101D70009A430243CA6020684169A26921F4407114
:101D8000114341611E492068884202D1FEF7BCFF21
:101D900001E0FEF7A9FF00EBC00101EB0012606853
:101DA00064218000B2FBF0F3B3FBF1F36FF018068F
:101DB0007343B2FBF0F5B2FBF0F605EB830532237B
:101DC00003EB0515B5FBF1F5B6FBF1F605F0F005F3
:101DD00005EB0615B2FBF0F6B2FBF0F0B0FBF1F04C
:101DE0006FF01802504306EB800003EB0010B0FBCD
:101DF000F1F0216800F00F002844886070BD0000F9
:101E00000038014081628285C2850021416422211F
:101E100080F84210016921B10168CA6842F48072F9
:101E2000CA6001684A6942F001024A610068C168FB
:101E300041F02001C160002070472DE9F041984633
:101E400017460E460446069D27E0681C25D02DB196
:101E5000FEF71EFEA0EB0800A8421ED920680C3039
:101E600050E8001F21F4D07140E80012002AF5D19B
:101E70002068143050E8001F21F0010140E80012F2
:101E8000002AF5D1202084F8410084F84200002087
:101E900084F840000320BDE8F0812068006836EA3D
:101EA000000004D00020B842CFD00020F3E701208A
:101EB000F9E700000148FFF7B3BA00006002002014
:101EC0000148FFF7ADBA0000A8020020FEE70000BD
:101ED0007CB5491E1C461546CDE90001044B6A46F7
:101EE0002146284600F0D8F8009A002111707CBDE8
:101EF000C72700080907090E002804DB00F1E020CD
:101F000080F80014704700F00F0000F1E02080F826
:101F1000141D704702E008C8121F08C1002AFAD138
:101F200070477047002001E001C1121F002AFBD159
:101F3000704700002DE9FF5FDDE90220010DDDF8AB
:101F400038B0024318D044F61050A1F2FF3141439B
:101F50000D140F98012820D0A5EB0B00401C5FEA60
:101F6000000A4FF00004474EDFF81C91A04650468F
:101F700016D5CAF1000728E00F98012443A20128D2
:101F800008D0002100980F9BC0E90021C0E902435E
:101F9000BDE8FF9F6FEA0B01F4E7CBF10000DEE73D
:101FA000074612E0F80707D0224633464046494626
:101FB000FEF7F1F980468946224633461046194617
:101FC000FEF7E9F904460E467F10002FEAD1DDE95D
:101FD0000201BAF1000F42464B4602DAFEF7DBF986
:101FE00001E0FEF74AFA04460E460022284BFEF7AF
:101FF000CBFA03D84FF0FF30014607E00022254B13
:1020000020463146FEF720F9FEF7A6FA102409E033
:10201000002C0ADB0A220023FEF7E5F8019B303290
:102020001A55641E50EA0102F2D1641C019AC4F1EF
:10203000110314440F9A012A03D0012208430DD141
:102040000AE0084304D000204FF0110B0F9080E706
:10205000A3EB0B056D1E0DE05B4504DD4FF00002A8
:1020600005F1010504E003DA4FF00002A5F10105D6
:10207000002AECD000980F99C0E90231C0E9004570
:1020800086E70000000024400000F03F3000000020
:102090000000F0430000E03F2DE9FF4F95B09B4664
:1020A0008946064600250FE2252877D100242746D9
:1020B000F84A0121059400E0044316F8013F203B53
:1020C00001FA03F01042F7D130782A2811D06FF0CE
:1020D0002F033078A0F13002092A16D8059A44F06F
:1020E000020402EB820203EB42021044761C0590CC
:1020F000EFE759F8042B0592002A03DA504244F422
:102100000054059044F00204761C30782E2816D135
:1021100016F8010F44F004042A280DD06FF02F02A6
:102120003078A0F13003092B09D807EB870302EBC5
:102130004303C718761CF3E759F8047B761C307804
:102140006C280FD006DC4C2817D068280DD06A28E0
:1021500014D104E0742810D07A280FD10DE044F493
:1021600000140AE044F4801401E044F4401472784E
:10217000824202D104F58014761C761C30786628E1
:102180000BD013DC582877D009DC002875D04528FF
:10219000F6D04628F4D047281AD19DE118E06328EC
:1021A00035D0642879D0652812D195E1702873D094
:1021B00008DC6728F1D069286FD06E280DD06F2811
:1021C00006D1B5E073282CD0752875D0782874D046
:1021D0005A46179990476D1C75E1C4F302500228C6
:1021E00009D003280DD0D9F8001004280DD00D60B7
:1021F00009F1040967E1D9F80010EA17C1E90052B2
:10220000F6E7D9F800100D80F2E70D70F0E719F845
:10221000041B8DF8001000208DF80100EA46012013
:1022200003E059F804AB4FF0FF3061074FF00001B5
:1022300002D40DE008F101018846B9420FDA804569
:10224000F8DB1AF808100029F4D108E008F10101C0
:1022500088468142FADB1AF808100029F6D1059861
:102260005B46A0EB080721463846179A00F094FA1F
:10227000284400EB080507E04DE029E10DE01AF8DD
:10228000010B5A4617999047B8F10108F7D25B46FF
:1022900021463846179A13E142E00A220092C4F31D
:1022A00002524FF0000A022A08D059F804CB032A40
:1022B0004FEAEC710AD00DE029E02AE009F10701AC
:1022C00021F00702F2E802C1914609E00FFA8CFC06
:1022D0004FEAEC71042A03D14FFA8CFC4FEAEC71FF
:1022E000002907DA0A460021DCF1000C61EB02014B
:1022F0002D2202E0220504D52B228DF80420012294
:1023000003E0E20701D02022F7E7904659E00A21D6
:1023100002E010220DE010214FF0000A00910BE0C6
:1023200010224FF0000A44F004040827009203E052
:1023300008224FF0000A0092C4F30252022A05D08C
:1023400059F804CB0021032A08D009E009F107015C
:1023500021F00702F2E802C1914605E01FFA8CFC69
:10236000042A01D10CF0FF0C4FF00008220728D5F9
:10237000702806D0009B83F0100353EA0A0305D0AF
:102380000EE040228DF80420012208E05CEA010200
:1023900006D030228DF804208DF8050002229046E8
:1023A000009B83F0080353EA0A030AD15CEA0102A6
:1023B00001D1620705D530228DF804204FF00108C5
:1023C0007F1E582804D034A003900EA802900DE080
:1023D00036A0F9E753466046009AFDF704FF8446AD
:1023E0000398825C0298401E029002705CEA010031
:1023F000F0D1029806A9081A00F1200A600702D558
:1024000024F4803400E00127574502DDA7EB0A00E1
:1024100000E0002000EB0A01009005984144401ABA
:102420000590E00306D45B462146179A059800F014
:10243000B3F90544002706E001A85A46C05D179984
:1024400090476D1C7F1C4745F6DBE0030CD55B46CF
:102450002146179A059800F09FF9054404E03020C2
:102460005A46179990476D1C0099481E0090002904
:10247000F5DC08E0029802995A460078491C02915E
:10248000179990476D1CBAF10001AAF1010AF1DC1D
:1024900065E1000009280100303132333435363728
:1024A00038396162636465660000000030313233A0
:1024B0003435363738394142434445460000000040
:1024C00000F058F90544761C307800287FF4ECAD14
:1024D00019B02846BDE8F08F620700D4062709F13D
:1024E000070222F0070CFCE80223E14603F0004853
:1024F0005FEA080C02D00FF2702C0DE05FEA045C7A
:1025000002D50FF2682C07E05FEAC47C02D00FF21C
:10251000602C01E0AFF2700C4FF0FF3823F0004365
:10252000CDF850C065280CD006DC452809D04628D7
:102530001DD047283DD13DE0662818D067287ED1C0
:1025400038E00021112F01DB112000E0781CCDE9DB
:10255000000106A90EA8FFF7EDFCDDE90F010E9AB8
:1025600003910021009207F1010A04914DE04FF020
:1025700000400097CDE9011006A90EA8FFF7DAFC8C
:10258000DDE90F0203920E9B11990022DDF80CA0E9
:102590000093049211B9791C00EB010AB7EB0A0011
:1025A00004D4C0F1FF3007F1010A0490AAEB070040
:1025B000019044E0012F00DA01270021112F01DDF5
:1025C000112000E03846CDE9000106A90EA8FFF76A
:1025D000B1FCDDE90F010E9A0391002104910092F4
:1025E000BA4621070CD40399514500DA8A46BAF15C
:1025F000010F05DD009AAAF10101515C302908D0D4
:10260000B84202DA10F1040F06DA0121CDE9011017
:1026100015E0AAF10101E9E7002805DC049901446D
:102620000491AAEB000102E0411C514500DD8A46FD
:102630000499401A401C01904FF00040029020077E
:1026400004D40198504501DBCDF8048000208DF8BA
:102650004F0002980DF14F07B0F1004F25D02B200D
:102660000E9002984FF0020800280CDA40420290C7
:102670002D200E9007E00A210298FDF79EFD3031D3
:10268000029007F8011DB8F10001A8F10108F2DC81
:1026900002980028EFD1791E0E980870307800F06B
:1026A000200040F0450007F8020D12A8C01B00F101
:1026B00007081498007800B1012000EB0A01019886
:1026C00001EBE07105984144401A401E0590E0037B
:1026D00006D45B462146179A059800F05DF805443C
:1026E0001498007818B15A46179990476D1CE0036A
:1026F00024D55B462146179A059800F04DF805440D
:102700001CE00498002807DBDDE90301884203DDB3
:102710000098405C179901E0179930205A4690477D
:10272000049805F10105401C04900198401E019099
:1027300004D12E205A46179990476D1CBAF100011A
:10274000AAF1010ADDDC05E017F8010B5A461799DA
:1027500090476D1CB8F10001A8F10108F4DC5B465C
:102760002146179A0598ABE62D0000002B000000CB
:10277000200000002DE9F041044600251E461746C2
:10278000880404D405E039462020B0476D1C641E3F
:10279000F9D52846BDE8F0812DE9F0410446002531
:1027A0001E469046C80301D5302700E02027880444
:1027B00004D505E041463846B0476D1C641EF9D586
:1027C0002846BDE8F0814A68002A06D00A68531CF2
:1027D0000B6010704868401E48607047FEF766F94D
:1027E000FFF772F9FFF7ACF8FFF730F9FFF74AF996
:1027F000FFF7FAF84FF4FA70FEF72EF8012221499C
:102800002148FEF7E1FF214E0024012234802049B7
:102810002048FEF7D9FF204D0B2220A12C801A481A
:10282000FFF773F8184800BF90F841102029FBD13A
:10283000DFF878904FF496774FF480783088810BEA
:1028400009D0C0F30B011A4A1AA000F039F83480FD
:102850006420FEF701F82888810B0AD0C0F30B0230
:10286000164B14A1084800F04FF82C806420FDF7A7
:10287000F3FF3846FDF7F0FF41464846FEF7FAF809
:10288000DCE70000000000206002002002000020C1
:1028900001000020A802002004000020756172746D
:1028A0003120696E69740D0A0000000000080140C3
:1028B00060000020252E2A730D0A00006001002010
:1028C0000FB440F2011110B5C2B045AB6846449A4E
:1028D000FFF7FEFA6846FDF769FC84B26846FDF72B
:1028E00065FC4FF48071884200D90C464FF6FF73A7
:1028F000224669460348FEF7BBFF42B010BC5DF8B4
:1029000014FB0000A80200200FB440F2011110B522
:10291000C2B0044646AB6846459AFFF7D9FA82B280
:102920004FF6FF7369462046FEF7A2FF42B010BC87
:102930005DF814FB010202030405060708090A0BEF
:102940000C0D0E0F1010000000000000000001022E
:102950000304060708090000000001020304000048
:10296000802900080000002018000000141F000843
:102970009829000818000020D8060000241F00082D
:102980000000000000000000010000001000000036
:08299000000000000024F40027
:0400000508000131BD
:00000001FF
