:020000040800F2
:1000000000C00020AD270008A5230008A723000892
:10001000A9230008AB230008AD230008000000005E
:10002000000000000000000000000000AF230008F6
:10003000B123000800000000B3230008B523000826
:10004000F5270008F5270008F5270008F527000820
:10005000F5270008F5270008F5270008F527000810
:10006000F5270008F5270008F5270008BD2300083C
:10007000F5270008F5270008F5270008F5270008F0
:10008000F5270008F5270008F5270008F5270008E0
:10009000F5270008F5270008F5270008CD230008FC
:1000A000F5270008F5270008F5270008F5270008C0
:1000B000D9230008F5270008F5270008F5270008D0
:1000C000F5270008F5270008F5270008F5270008A0
:1000D000F5270008E9230008F9230008F5270008A0
:1000E000F5270008F5270008F5270008F527000880
:1000F000F5270008F5270008F5270008F527000870
:10010000F5270008F5270008F5270008F52700085F
:10011000F5270008F5270008F5270008F52700084F
:10012000F5270008F5270008F5270008F52700083F
:1001300000000000000000000000000000000000BF
:1001400000000000000000000000000000000000AF
:10015000000000000000000000000000000000009F
:10016000000000000000000000000000000000008F
:10017000000000000000000000000000000000007F
:10018000000000000000000000000000000000006F
:10019000000000000000000000000000000000005F
:1001A000000000000000000000000000000000004F
:1001B000000000000000000000000000000000003F
:1001C000000000000000000000000000000000002F
:1001D000000000000000000000000000000000001F
:0401E0005FF8E0F1F3
:1001E80010B5054C237833B9044B13B10448AFF369
:1001F80000800123237010BDC0090020000000000A
:100208008CDA000808B5034B1BB103490348AFF368
:10021800008008BD00000000C40900208CDA000836
:1002280081F0004102E000BF83F0004330B54FEA9F
:1002380041044FEA430594EA050F08BF90EA020F0C
:100248001FBF54EA000C55EA020C7FEA645C7FEA9F
:10025800655C00F0E2804FEA5454D4EB5555B8BFC2
:100268006D420CDD2C4480EA020281EA030382EA33
:10027800000083EA010180EA020281EA0303362DC5
:1002880088BF30BD11F0004F4FEA01314FF4801C98
:100298004CEA113102D0404261EB410113F0004FAA
:1002A8004FEA03334CEA133302D0524263EB430361
:1002B80094EA050F00F0A780A4F10104D5F1200EFF
:1002C8000DDB02FA0EFC22FA05F2801841F100015A
:1002D80003FA0EF2801843FA05F359410EE0A5F12E
:1002E80020050EF1200E012A03FA0EFC28BF4CF05F
:1002F800020C43FA05F3C01851EBE37101F0004515
:1003080007D54FF0000EDCF1000C7EEB00006EEB21
:100318000101B1F5801F1BD3B1F5001F0CD34908AB
:100328005FEA30004FEA3C0C04F101044FEA445202
:1003380012F5800F80F09A80BCF1004F08BF5FEA89
:10034800500C50F1000041EB045141EA050130BD69
:100358005FEA4C0C404141EB0101013C28BFB1F57B
:10036800801FE9D291F0000F04BF01460020B1FAC6
:1003780081F308BF2033A3F10B03B3F120020CDA99
:100388000C3208DD02F1140CC2F10C0201FA0CF077
:1003980021FA02F10CE002F11402D8BFC2F1200CDC
:1003A80001FA02F120FA0CFCDCBF41EA0C01904092
:1003B800E41AA2BF01EB0451294330BD6FEA0404DB
:1003C8001F3C1CDA0C340EDC04F11404C4F12002C6
:1003D80020FA04F001FA02F340EA030021FA04F3D8
:1003E80045EA030130BDC4F10C04C4F1200220FA2F
:1003F80002F001FA04F340EA0300294630BD21FA6D
:1004080004F0294630BD94F0000F83F4801306BF32
:1004180081F480110134013D4EE77FEA645C18BF26
:100428007FEA655C29D094EA050F08BF90EA020FBD
:1004380005D054EA000C04BF1946104630BD91EAB5
:10044800030F1EBF0021002030BD5FEA545C05D1B8
:100458004000494128BF41F0004130BD14F58004F7
:100468003CBF01F5801130BD01F0004545F0FE416B
:1004780041F470014FF0000030BD7FEA645C1ABFA0
:10048800194610467FEA655C1CBF0B46024650EAD7
:10049800013406BF52EA033591EA030F41F4002103
:1004A80030BD00BF90F0000F04BF0021704730B589
:1004B8004FF4806404F132044FF000054FF000015E
:1004C80050E700BF90F0000F04BF0021704730B51F
:1004D8004FF4806404F1320410F0004548BF4042F4
:1004E8004FF000013EE700BF42004FEAE2014FEA49
:1004F80031014FEA02701FBF12F07F4393F07F4F24
:1005080081F06051704732F07F4208BF704793F026
:100518007F4F04BF41F40021704730B54FF4607439
:1005280001F0004521F000411CE700BF50EA01023C
:1005380008BF704730B54FF000050AE050EA0102E5
:1005480008BF704730B511F0004502D5404261EB55
:1005580041014FF4806404F132045FEA915C3FF496
:10056800D8AE4FF003025FEADC0C18BF03325FEA33
:10057800DC0C18BF033202EBDC02C2F1200300FAE4
:1005880003FC20FA02F001FA03FE40EA0E0021FA09
:1005980002F11444BDE600BF70B54FF0FF0C4CF4F7
:1005A800E06C1CEA11541DBF1CEA135594EA0C0FA9
:1005B80095EA0C0F00F0DEF82C4481EA030621EAE4
:1005C8004C5123EA4C5350EA013518BF52EA03351F
:1005D80041F4801143F4801338D0A0FB02CE4FF0D1
:1005E8000005E1FB02E506F00042E0FB03E54FF001
:1005F8000006E1FB03569CF0000F18BF4EF0010EF9
:10060800A4F1FF04B6F5007F64F5407404D25FEAF4
:100618004E0E6D4146EB060642EAC62141EA5551A7
:100628004FEAC52040EA5E504FEACE2EB4F1FD0CE9
:1006380088BFBCF5E06F1ED8BEF1004F08BF5FEA67
:10064800500E50F1000041EB045170BD06F0004619
:1006580046EA010140EA020081EA0301B4EB5C04C6
:10066800C2BFD4EB0C0541EA045170BD41F48011BE
:100678004FF0000E013C00F3AB8014F1360FDEBFE3
:10068800002001F0004170BDC4F10004203C35DABF
:100698000C341BDC04F11404C4F1200500FA05F342
:1006A80020FA04F001FA05F240EA020001F00042E3
:1006B80021F0004110EBD37021FA04F642EB060159
:1006C8005EEA430E08BF20EAD37070BDC4F10C0483
:1006D800C4F1200500FA04F320FA05F001FA04F247
:1006E80040EA020001F0004110EBD37041F1000133
:1006F8005EEA430E08BF20EAD37070BDC4F120053E
:1007080000FA05F24EEA020E20FA04F301FA05F2A5
:1007180043EA020321FA04F001F0004121FA04F24D
:1007280020EA020000EBD3705EEA430E08BF20EA1D
:10073800D37070BD94F0000F0FD101F00046400057
:1007480041EB010111F4801F08BF013CF7D041EAD9
:10075800060195F0000F18BF704703F000465200DD
:1007680043EB030313F4801F08BF013DF7D043EAAE
:100778000603704794EA0C0F0CEA135518BF95EA64
:100788000C0F0CD050EA410618BF52EA4306D1D1EB
:1007980081EA030101F000414FF0000070BD50EA0A
:1007A800410606BF1046194652EA430619D094EA94
:1007B8000C0F02D150EA013613D195EA0C0F05D17E
:1007C80052EA03361CBF104619460AD181EA0301D2
:1007D80001F0004141F0FE4141F470014FF000008A
:1007E80070BD41F0FE4141F4780170BD70B54FF025
:1007F800FF0C4CF4E06C1CEA11541DBF1CEA1355A5
:1008080094EA0C0F95EA0C0F00F0A7F8A4EB050486
:1008180081EA030E52EA03354FEA013100F088807D
:100828004FEA03334FF0805545EA131343EA126346
:100838004FEA022245EA111545EA10654FEA0026FB
:100848000EF000419D4208BF964244F1FD0404F5B4
:10085800407402D25B084FEA3202B61A65EB030510
:100868005B084FEA32024FF480104FF4002CB6EBCD
:10087800020E75EB030E22BFB61A754640EA0C004D
:100888005B084FEA3202B6EB020E75EB030E22BF8D
:10089800B61A754640EA5C005B084FEA3202B6EBCE
:1008A800020E75EB030E22BFB61A754640EA9C008D
:1008B8005B084FEA3202B6EB020E75EB030E22BF5D
:1008C800B61A754640EADC0055EA060E18D04FEA1B
:1008D800051545EA16754FEA06164FEAC30343EABB
:1008E80052734FEAC2025FEA1C1CC0D111F4801F88
:1008F8000BD141EA00014FF000004FF0004CB6E781
:1009080011F4801F04BF01430020B4F1FD0C88BF1F
:10091800BCF5E06F3FF6AFAEB5EB030C04BFB6EB2A
:10092800020C5FEA500C50F1000041EB045170BD1D
:100938000EF0004E4EEA113114EB5C04C2BFD4EB4A
:100948000C0541EA045170BD41F480114FF0000ECE
:10095800013C90E645EA060E8DE60CEA135594EA4A
:100968000C0F08BF95EA0C0F3FF43BAF94EA0C0F4D
:100978000AD150EA01347FF434AF95EA0C0F7FF4C2
:1009880025AF104619462CE795EA0C0F06D152EA16
:1009980003353FF4FDAE1046194622E750EA4106FA
:1009A80018BF52EA43067FF4C5AE50EA41047FF40B
:1009B8000DAF52EA43057FF4EBAE12E74FEA41026E
:1009C80012F5001215D211D56FF47873B3EB625299
:1009D80012D94FEAC12343F0004343EA505311F0C0
:1009E800004F23FA02F018BF404270474FF0000052
:1009F800704750EA013005D111F0004008BF6FF090
:100A0800004070474FF00000704700BF4FEA4102B6
:100A1800B2F1E04324BFB3F5001CDCF1FE5C0DD954
:100A280001F0004C4FEAC0024CEA5070B2F1004F9E
:100A380040EB830008BF20F00100704711F0804FA1
:100A480021D113F13872BCBF01F00040704741F466
:100A580080114FEA5252C2F11802C2F1200C10FA6A
:100A68000CF320FA02F018BF40F001004FEAC1234E
:100A78004FEAD32303FA0CFC40EA0C0023FA02F3F2
:100A88004FEA4303CCE77FEA625307D150EA0133C8
:100A98001EBF4FF0FE4040F44000704701F0004098
:100AA80040F0FE4040F40000704700BF80F0004076
:100AB80002E000BF81F0004142001FBF5FEA41032E
:100AC80092EA030F7FEA226C7FEA236C6AD04FEA2E
:100AD8001262D2EB1363C1BFD21841404840414073
:100AE800B8BF5B42192B88BF704710F0004F40F425
:100AF800000020F07F4018BF404211F0004F41F441
:100B0800000121F07F4118BF494292EA030F3FD00C
:100B1800A2F1010241FA03FC10EB0C00C3F120031F
:100B280001FA03F100F0004302D5494260EB4000AE
:100B3800B0F5000F13D3B0F1807F06D340084FEA19
:100B4800310102F10102FE2A51D2B1F1004F40EB0E
:100B5800C25008BF20F0010040EA03007047490076
:100B680040EB0000013A28BFB0F5000FEDD2B0FA13
:100B780080FCACF1080CB2EB0C0200FA0CF0AABF36
:100B880000EBC25052421843BCBFD04018437047D4
:100B980092F0000F81F4000106BF80F400000132DA
:100BA800013BB5E74FEA41037FEA226C18BF7FEAB1
:100BB800236C21D092EA030F04D092F0000F08BFF3
:100BC8000846704790EA010F1CBF0020704712F0DA
:100BD8007F4F04D1400028BF40F00040704712F119
:100BE80000723CBF00F50000704700F0004343F07E
:100BF800FE4040F4000070477FEA226216BF0846B4
:100C08007FEA23630146420206BF5FEA412390EA76
:100C1800010F40F4800070474FF0000304E000BF6C
:100C280010F0004348BF40425FEA000C08BF70471D
:100C380043F0964301464FF000001CE050EA0102E1
:100C480008BF70474FF000030AE000BF50EA0102F6
:100C580008BF704711F0004302D5404261EB4101E3
:100C68005FEA010C02BF84460146002043F0B64308
:100C780008BFA3F18053A3F50003BCFA8CF2083A2D
:100C8800A3EBC25310DB01FA02FC634400FA02FC36
:100C9800C2F12002BCF1004F20FA02F243EB02003D
:100CA80008BF20F00100704702F1200201FA02FC9F
:100CB800C2F1200250EA4C0021FA02F243EB020092
:100CC80008BF20EADC7070474FF0FF0C1CEAD052D6
:100CD8001EBF1CEAD15392EA0C0F93EA0C0F6FD097
:100CE8001A4480EA010C400218BF5FEA41211ED075
:100CF8004FF0006343EA501043EA5111A0FB013161
:100D08000CF00040B1F5000F3EBF490041EAD37135
:100D18005B0040EA010062F17F02FD2A1DD8B3F1B1
:100D2800004F40EBC25008BF20F00100704790F020
:100D3800000F0CF0004C08BF49024CEA502040EA72
:100D480051207F3AC2BFD2F1FF0340EAC250704738
:100D580040F400004FF00003013A5DDC12F1190F76
:100D6800DCBF00F000407047C2F10002410021FAE8
:100D780002F1C2F1200200FA02FC5FEA310040F100
:100D8800000053EA4C0308BF20EADC70704792F079
:100D9800000F00F0004C02BF400010F4000F013AB1
:100DA800F9D040EA0C0093F0000F01F0004C02BFAC
:100DB800490011F4000F013BF9D041EA0C018FE71B
:100DC8000CEAD15392EA0C0F18BF93EA0C0F0AD021
:100DD80030F0004C18BF31F0004CD8D180EA010047
:100DE80000F00040704790F0000F17BF90F0004FE0
:100DF800084691F0000F91F0004F14D092EA0C0FC2
:100E080001D142020FD193EA0C0F03D14B0218BF54
:100E1800084608D180EA010000F0004040F0FE409A
:100E280040F40000704740F0FE4040F44000704736
:100E38004FF0FF0C1CEAD0521EBF1CEAD15392EAB5
:100E48000C0F93EA0C0F69D0A2EB030280EA010CA5
:100E580049024FEA402037D04FF0805343EA11113E
:100E680043EA10130CF000408B4238BF5B0042F19C
:100E78007D024FF4000C8B4224BF5B1A40EA0C0041
:100E8800B3EB510F24BFA3EB510340EA5C00B3EB73
:100E9800910F24BFA3EB910340EA9C00B3EBD10F61
:100EA80024BFA3EBD10340EADC001B0118BF5FEAB3
:100EB8001C1CE0D1FD2A3FF650AF8B4240EBC250DC
:100EC80008BF20F0010070470CF0004C4CEA50209D
:100ED8007F32C2BFD2F1FF0340EAC250704740F4EC
:100EE80000004FF00003013A37E792F0000F00F0DE
:100EF800004C02BF400010F4000F013AF9D040EA5C
:100F08000C0093F0000F01F0004C02BF490011F4EF
:100F1800000F013BF9D041EA0C0195E70CEAD153E7
:100F280092EA0C0F08D142027FF47DAF93EA0C0FCE
:100F38007FF470AF084676E793EA0C0F04D14B02B2
:100F48003FF44CAF08466EE730F0004C18BF31F064
:100F5800004CCAD130F000427FF45CAF31F000435E
:100F68007FF43CAF5FE700BF4FF0FF3C06E000BFF7
:100F78004FF0010C02E000BF4FF0010C4DF804CD1A
:100F88004FEA40024FEA41037FEA226C18BF7FEA2A
:100F9800236C11D001B052EA530C18BF90EA010F2C
:100FA80058BFB2EB030088BFC81738BF6FEAE170BB
:100FB80018BF40F0010070477FEA226C02D15FEA57
:100FC800402C05D17FEA236CE4D15FEA412CE1D0C3
:100FD8005DF8040B704700BF844608466146FFE78A
:100FE8000FB5FFF7C9FF002848BF10F1000F0FBD6C
:100FF8004DF808EDFFF7F4FF0CBF012000205DF865
:1010080008FB00BF4DF808EDFFF7EAFF34BF0120E9
:1010180000205DF808FB00BF4DF808EDFFF7E0FF82
:1010280094BF012000205DF808FB00BF4DF808EDD3
:10103800FFF7D2FF94BF012000205DF808FB00BF36
:101048004DF808EDFFF7C8FF34BF012000205DF818
:1010580008FB00BF844641EA000313F0030349D1AB
:10106800403A23D30B6803604B6843608B68836006
:10107800CB68C3600B6903614B6943618B6983610A
:10108800CB69C3610B6A03624B6A43628B6A8362F2
:10109800CB6AC3620B6B03634B6B43638B6B8363DA
:1010A800CB6BC36340304031403ADBD230320BD394
:1010B8000B6803604B6843608B688360CB68C360D0
:1010C80010301031103AF3D20C3205D351F8043BEA
:1010D80040F8043B043AF9D2043208D0D2071CBFC6
:1010E80011F8013B00F8013B01D30B8803806046EF
:1010F800704700BF082A13D38B07B1D010F0030341
:10110800AED0C3F10403D21ADB071CBF11F8013BB0
:1011180000F8013BA4D331F8023B20F8023B9FE7DB
:10112800043AD9D3013A11F8013B00F8013BF9D24E
:101138000B7803704B7843708B78837060467047E8
:101148004FF0FF3C06E000BF4FF0010C02E000BF8B
:101158004FF0010C4DF804CD4FEA410C7FEA6C5C6E
:101168004FEA430C18BF7FEA6C5C1BD001B050EA11
:10117800410C0CBF52EA430C91EA030F02BF90EAFC
:10118800020F0020704710F1000F91EA030F58BFBB
:10119800994208BF90422CBFD8176FEAE37040F01D
:1011A800010070474FEA410C7FEA6C5C02D150EABB
:1011B800013C07D14FEA430C7FEA6C5CD6D152EA76
:1011C800033CD3D05DF8040B704700BF844610463B
:1011D80062468C461946634600E000BF01B5FFF73A
:1011E800B7FF002848BF10F1000F01BD4DF808ED0A
:1011F800FFF7F4FF0CBF012000205DF808FB00BFDB
:101208004DF808EDFFF7EAFF34BF012000205DF834
:1012180008FB00BF4DF808EDFFF7E0FF94BF012081
:1012280000205DF808FB00BF4DF808EDFFF7CEFF82
:1012380094BF012000205DF808FB00BF4DF808EDC1
:10124800FFF7C4FF34BF012000205DF808FB00BF92
:101258004FEA410C7FEA6C5C02D150EA013C0AD1AA
:101268004FEA430C7FEA6C5C02D152EA033C02D19C
:101278004FF0000070474FF00100704753B94AB96A
:10128800002908BF00281CBF4FF0FF314FF0FF3086
:1012980000F076B9ADF1080C6DE904CE00F006F85F
:1012A800DDF804E0DDE9022304B070472DE9F047DA
:1012B800089E0D4604468846002B4DD18A42944626
:1012C80068D9B2FA82F252B101FA02F3C2F12001EE
:1012D80020FA01F10CFA02FC41EA030894404FEAB3
:1012E8001C41B8FBF1F71FFA8CFE01FB178807FBBE
:1012F8000EF0230C43EA084398420AD91CEB030377
:1013080007F1FF3580F01E81984240F21B81023FB1
:1013180063441B1AB3FBF1F001FB103300FB0EFE14
:10132800A4B244EA0344A6450AD91CEB040400F11C
:10133800FF3380F00981A64540F2068164440238F3
:101348000021A4EB0E0440EA07401EB10023D4405C
:10135800C6E90043BDE8F0878B4208D9002E00F0AB
:10136800EE800021C6E900050846BDE8F087B3FA1B
:1013780083F100294AD1AB4202D3824200F2FC80B9
:10138800841A65EB030301209846002EE2D0C6E9D3
:101398000048DFE702B9FFDEB2FA82F2002A40F025
:1013A8009180A1EB0C0001214FEA1C471FFA8CFE2B
:1013B800B0FBF7F307FB1300250C45EA00450EFBCD
:1013C80003F0A84208D91CEB050503F1FF3802D247
:1013D800A84200F2CE8043462D1AB5FBF7F007FB72
:1013E80010550EFB00FEA4B244EA0544A64508D9F0
:1013F8001CEB040400F1FF3502D2A64500F2B680CA
:101408002846A4EB0E0440EA03409EE7C1F12007FA
:101418008B4022FA07FC4CEA030C25FA07FA4FEA3C
:101428001C49BAFBF9F820FA07F309FB18AA8D4002
:101438001FFA8CFE1D4300FA01F308FB0EF02C0C7A
:1014480044EA0A44A04202FA01F20BD91CEB040454
:1014580008F1FF3A80F08880A04240F28580A8F128
:1014680002086444241AB4FBF9F009FB104400FB99
:101478000EFEADB245EA0444A64508D91CEB0404A7
:1014880000F1FF356CD2A6456AD90238644440EAB7
:101498000840A0FB0295A4EB0E04AC42C846AE4639
:1014A80056D353D0002E69D0B3EB080264EB0E0478
:1014B80022FA01F304FA07F71F43CC40C6E9007487
:1014C800002147E70CFA02FCC2F1200125FA01F3DA
:1014D8004FEA1C4720FA01F195400D43B3FBF7F1A1
:1014E80007FB11331FFA8CFE280C40EA034001FB6E
:1014F8000EF3834204FA02F408D91CEB000001F150
:10150800FF382FD283422DD902396044C01AB0FB6C
:10151800F7F307FB1300ADB245EA004503FB0EF0F5
:10152800A84208D91CEB050503F1FF3816D2A842DA
:1015380014D9023B6544281A43EA014138E7314689
:10154800304607E72F46E4E61846F9E64B45A9D2A8
:10155800B9EB020865EB0C0E0138A3E74346EAE74E
:10156800284694E74146D1E7D0467BE764440238F1
:1015780047E7023B65442FE7084606E73146E9E6B8
:10158800704700BF00B585B0002301930293039311
:101598001048114A026083600122027303754FF4F8
:1015A8006021C1614360026101F068FB60B90623F4
:1015B800019301230293039301A9064801F0B4F9AA
:1015C80028B905B05DF804FB00F018FDEFE700F05E
:1015D80015FDF6E7DC0900200024014010B586B0AF
:1015E8000023029303930493059302681E4B9A42C7
:1015F80001D006B010BD044603F56C439A6942F465
:1016080000729A619A6902F400720092009A9A69CB
:1016180042F004029A619B6903F004030193019B61
:10162800402302930323039302A9104801F012FFF9
:101638000F48104B03600023436083608022C26020
:101648004FF4007202614FF400624261202282610D
:10165800C36101F029FC18B9054B23625C62C8E735
:1016680000F0CCFCF8E700BF00240140000801406E
:101678000C0A0020080002400EB410B5C3B004469E
:1016880045AB53F8042B419340F20111684606F02C
:10169800B1FF4FF6FF7382B26946204602F01EFF83
:1016A80043B0BDE8104003B0704700000FB400B568
:1016B800C3B044AB53F8042B009340F2011101A8C6
:1016C80006F098FF01A803F017FA82B2B0F5807F00
:1016D80001D94FF480724FF6FF7301A9034802F055
:1016E800FDFE43B05DF804EB04B070471C0D00200C
:1016F80008B50021034B19804FF48072024803F0AB
:1017080073F908BDD00C0020D00B002008B55E4846
:10171800FFF7CCFF5D4B93F84130DBB2202BF9D1BA
:101728005B495C4803F072FB5B4B1860FFF7E0FF16
:1017380010E05548FFF7BAFF544B93F84130DBB23D
:10174800202BF9D15249534803F060FB524B1860E3
:10175800FFF7CEFF504B1B68002BEAD04F4950488B
:10176800FFF78AFF4F48FFF7A1FF642001F08AF8CE
:101778004749484803F04AFB474B1860FFF7B8FF52
:101788000DE04848FFF792FF642001F07BF84049DC
:10179800404803F03BFB404B1860FFF7A9FF3E4B66
:1017A8001B68002BEDD04048FFF780FF642001F054
:1017B80069F83E49374803F029FB374B1860FFF7B3
:1017C80097FF10E03848FFF771FF642001F05AF8DE
:1017D8003649304803F01AFB2F4B1860FFF788FF93
:1017E800642001F04FF82C4B1B68002BEAD03049DD
:1017F8002B48FFF741FF2F48FFF758FF642001F0FF
:1018080041F82349234803F001FB234B1860FFF7F5
:101818006FFF0EE04FF47A7001F034F82548FFF7B7
:1018280045FF1B491B4803F0F1FA1B4B1860FFF7F3
:101838005FFF194B1B68002BECD01F48FFF736FFE2
:10184800642001F01FF81D49124803F0DFFA124B1B
:101858001860FFF74DFF0EE04FF47A7001F012F8B0
:101868001548FFF723FF15490A4803F0CFFA0A4B3A
:101878001860FFF73DFF084B1B68002BECD01049A0
:101888000748FFF7F9FE08BDA8DA00081C0D00207C
:10189800B0DA0008D00B0020500A0020B4DA0008A3
:1018A800D40C0020C4DA0008D0DA0008DCDA00081A
:1018B800E4DA0008F8DA000808DB000814DB00089E
:1018C80020DB000808B52D48FFF7F0FE2C4B93F8F5
:1018D8004130DBB2202BF9D12A492B4803F096FA84
:1018E8002A4B1860FFF704FF10E02448FFF7DEFEDC
:1018F800234B93F84130DBB2202BF9D124492248FD
:1019080003F084FA214B1860FFF7F2FE1F4B1B68A7
:10191800002BEAD01F492048FFF7AEFEC82000F090
:10192800B1FF1E48FFF7C2FE154B93F84130DBB2FA
:10193800202BF9D11A49144803F068FA134B1860A0
:10194800FFF7D6FE10E01548FFF7B0FE0C4B93F8F2
:101958004130DBB2202BF9D10D490B4803F056FA80
:101968000A4B1860FFF7C4FE084B1B68002BEAD02F
:101978000C490948FFF780FE08BD00BF34DB0008AA
:101988001C0D002058DB0008D00B0020500A002056
:1019980068DB000870DB0008D40C002088DB000836
:1019A800A0DB0008B0DB000870B5B4B004460D46F3
:1019B800164600210291C42203A803F015F810214D
:1019C800134801F067FED8B900962B462246114904
:1019D80002A803F06FF802A803F08EF801460E483B
:1019E800FFF764FE02A90D48FFF760FE0C490D4899
:1019F80003F00CFA0C4B1860FFF77AFE34B070BD98
:101A080000962B462246094902A803F053F8E2E75C
:101A180000080140C0DB000824DC000848DC00089E
:101A280050DC0008D00B0020500A0020F4DB00082E
:101A380008B50648FFF73AFEC82000F023FF04491E
:101A48000448FFF719FEFFF753FE08BD58DC0008ED
:101A580078DC0008D40C002010B50949094803F0C7
:101A6800D5F948B1074C204603F046F80438245C01
:101A7800FFF73EFE204610BDFFF73AFE3024F9E797
:101A88008CDC0008D00B00200D4B1B6800225A622A
:101A98001A6842F001021A60094B1B685A6A8242AE
:101AA800FAD3196A41F21112114208D1196A40F2A7
:101AB8004442114203D11A6822F001021A607047A9
:101AC800800A002000B585B000230093019302939B
:101AD8000393012300930193032303936946034867
:101AE80001F0B8FC05B05DF804FB00BF000C014034
:101AF80000B585B00023009301930293039301235B
:101B0800009302936946034801F0A4FC05B05DF810
:101B180004FB00BF000C014010B5FFF7D3FF094CD0
:101B280000220121204601F0BCFD142000F0AAFE8D
:101B380001221146204601F0B4FD1E20FFF7A4FF44
:101B480010BD00BF000C014010B5FFF7D1FF002405
:101B58000121124801F09EFD38B1C72C05D8013487
:101B6800E4B20120FFF790FFF2E7C72C11D8002458
:101B780004E00134E4B20120FFF786FF01210748A1
:101B880001F088FD08B9C72CF3D9C72C03D8002069
:101B980010BD0120FCE70120FAE700BF000C01405E
:101BA80038B5002504E00135EDB20120FFF76CFFE0
:101BB80001210F4801F06EFD044640B1C72DF2D94E
:101BC800002404E00134E4B20120FFF75DFF0121A5
:101BD800074801F05FFD08B9C72CF3D92820FFF7A3
:101BE80053FF0121024801F055FD00B1012038BD25
:101BF800000C014038B50020054607E04000C4B29B
:101C0800FFF7CEFF2043C0B20135EDB2072DF5D95D
:101C180038BD08B5FFF780FFFFF796FF08BD70B520
:101C280082B00546FFF778FFFFF78EFF10B906462A
:101C380004460AE001261AE0FFF7DCFF04F1080376
:101C48006B4403F8080C0134E4B2042CF4D99DF871
:101C580000409DF8011063189DF8020003449DF8A8
:101C680003201344DBB29DF804C0634502D030461C
:101C780002B070BD01EB0421298002EB00226A80CA
:101C8800F5E7000000B583B00A4B5A6942F001023B
:101C98005A615B6903F001030193019B002211461D
:101CA8000B2001F091F80B2001F0C6F803B05DF8A5
:101CB80004FB00BF0010024000B585B0022300936A
:101CC800002301936946034801F0C4FB05B05DF8A1
:101CD80004FB00BF0008014000B585B00223009353
:101CE80001230193032303936946034801F0B2FBE0
:101CF80005B05DF804FB00BF0008014010B5FFF710
:101D0800EBFF074C0023C4F8843140F2EE20FFF7C4
:101D1800BBFE0123C4F884310F20FFF7B5FE10BDC8
:101D28000000214210B5FFF7C7FF0024114BD3F87C
:101D380004313BB1C72C05D80134E4B20120FFF7C8
:101D4800A3FEF3E7C72C10D8002404E00134E4B262
:101D58000120FFF799FE074BD3F804310BB9EF2C9C
:101D6800F4D9EF2C03D8002010BD0120FCE7012096
:101D7800FAE700BF0000214210B5FFF7ADFF0D4C98
:101D88000023C4F884310220FFF77EFE0123C4F843
:101D98008431FFF791FF0C20FFF776FED4F8043169
:101DA8002BB101243220FFF76FFE204610BD00241E
:101DB800F8E700BF0000214238B50024012507E0FC
:101DC800FFF7DAFF640844EAC014E4B20135EDB263
:101DD800082DF5D9204638BD70B50546FFF77CFFBC
:101DE80001240EE0124E0023C6F884313C20FFF790
:101DF8004BFE0123C6F884310220FFF745FE01346B
:101E0800E4B2082C12D805F001036D08002BE9D0C4
:101E1800074E0023C6F884310220FFF735FE012360
:101E2800C6F884313C20FFF72FFEE8E770BD00BFFD
:101E38000000214208B5FFF761FFFFF773FFCC20D0
:101E4800FFF7CAFF4420FFF7C7FF08BD08B5FFF733
:101E580055FFFFF767FF08BD10B5FFF7EBFFFFF76A
:101E68004DFFFFF75FFFCC20FFF7B6FFBE20FFF75F
:101E7800B3FFFFF7A1FF0446FFF79EFF83B21B02E3
:101E88009BB2A4B2234498B203F47843B3F5784FD5
:101E980008D0FEF717FB0022084BFEF77DFBFEF784
:101EA800B5FD10BD404280B2FEF70CFB0022044B8A
:101EB800FEF772FBFEF7AAFDF3E700BF0000B03F94
:101EC8000000B0BF2DE9F04188B0002404940594C7
:101ED80006940794344B9A6942F010029A619A6901
:101EE80002F010020092009A9A6942F020029A6168
:101EF8009A6902F020020192019A9A6942F004025A
:101F08009A619A6902F004020292029A9A6942F06E
:101F180008029A619B6903F008030393039B234E0D
:101F280001224FF48171304601F0BBFB224610219B
:101F3800304601F0B6FBDFF87880224601214046A2
:101F480001F0AFFB022704970125059506940323AA
:101F5800079304A9304601F07DFA4FF4887304937F
:101F680005950694079704A9304601F073FA04957D
:101F780005950695079704A9404601F06BFA4FF4BA
:101F8800007304930B4B0593069504A90A4801F0C6
:101F980061FA22462146172000F016FF172000F0AC
:101FA8004BFF08B0BDE8F081001002400008014076
:101FB800000C0140000021100010014010B504463B
:101FC800012300E001330A4A9342FBDD4FF400711C
:101FD800084801F05FFB10B1074B5C6110BD102190
:101FE80000F1804000F5843001F061FBF4E700BFA8
:101FF8003F190100001001400004014072B6FEE7DD
:1020080000B597B0282200210CA802F0EDFC0023AF
:102018000793089309930A930B93019302930393ED
:1020280004930593069301220C924FF480330D9389
:1020380010920222139214934FF4E01315930CA8F4
:1020480001F062FBC8B90F2307930221089100230E
:1020580009934FF480620A920B9307A801F086FD5A
:1020680068B9022301934FF40043039301A801F0D8
:1020780059FE30B917B05DF804FBFFF7BFFFFFF753
:10208800BDFFFFF7BBFF000070B596B000F0D6FBB0
:10209800FFF7B6FFFFF716FFFFF7F4FD00F064FA4D
:1020A80000F07CFA00F00CFAFFF76CFA4FF47A7043
:1020B80000F0E8FB002415941094119412941394E2
:1020C80014940B940C940D940E940F940694079406
:1020D800089409940A94019402940394049405942E
:1020E80001224A494A4802F042FC4A4B1C8001221C
:1020F80049494A4802F03BFC494B1C8007E04949E2
:102108004348FFF7B9FA4FF4FA7000F0BBFBFFF74A
:102118009DFE0028F3D107E043493D48FFF7ACFA9C
:102128004FF4FA7000F0AEFBFFF773FD0028F3D10F
:1021380000F08AF8FFF7EAFAFFF7C4FBFFF778FC2C
:1021480017E000221021394801F0ABFA214638483F
:1021580002F09CFC56E001221021344801F0A1FA5B
:102168002146344802F092FC4FF480712F4801F068
:102178009EFA15A8FFF753FDBDF856302E4CA4FB68
:102188000312D20802EB8201A3EB41032B4E9BB250
:10219800314606A802F08EFCBDF85430A4FB0312A9
:1021A800D20802EB8201A3EB41039BB2314601A89E
:1021B80002F080FCFFF750FE04460021FEF740FFC6
:1021C80000B125462846FEF78FF902460B461C4902
:1021D80010A802F06FFC00F073F8FEF785F90246CC
:1021E8000B4618490BA802F065FC0BAA01A906A822
:1021F800FFF7DAFBC82000F045FBFFF72DFC04468B
:102208006C289ED0722CA6D0AEE700BFC80A00206A
:10221800D40C0020CC0B0020CE0B00201C0D00207D
:10222800D00C002098DC0008B4DC0008000801404D
:10223800E8DC0008F4DC0008CDCCCCCCD0DC00080D
:10224800D8DC0008E0DC000808B50A220249034887
:1022580000F050FC08BD00BF540A0020DC09002033
:102268000022134604E0074951F823100A440133B9
:10227800092BF8DD044880FB0230D217C2EBA0001E
:10228800704700BF540A00206766666600000000B9
:1022980008B5FEF729F906A3D3E90023FEF7A6FA45
:1022A800FEF7B4FB044B186008BD00BFAFF3008015
:1022B8009EBCB36B8D2E1340000000200000000070
:1022C80010B5FFF7CDFFFEF7ABFC2349FEF7FCFC8A
:1022D8004FF06651FEF7F8FCFEF706F918A3D3E9AC
:1022E8000023FDF7A3FF00221C4BFEF755F9FEF76C
:1022F80065FBFEF795FC1A49FEF79AFD0446014670
:102308001548FEF7D7FB2146FEF792FD1549FEF763
:10231800DBFC0446FFF7BCFF134B19682046FEF7A9
:1023280087FDFEF7E1F808A3D3E900230AF03AFC99
:1023380007A3D3E90023FEF72FF9FEF767FB10BDCB
:102348007B14AE47E17A743F000000C0F753F7BF33
:10235800000000A09B94584033335340000059407C
:102368000000C842000020410000002082B00A4B53
:102378009A6942F001029A619A6902F00102009298
:10238800009ADA6942F08052DA61DB6903F080531F
:102398000193019B02B0704700100240FEE7FEE780
:1023A800FEE7FEE7FEE770477047704708B500F0A4
:1023B80057FA08BD08B5024800F0D6FE08BD00BFB0
:1023C8000C0A002008B54FF4007001F079F908BD37
:1023D80008B5024801F064FD08BD00BF800A00206E
:1023E80008B5024802F064F908BD00BFD40C00200B
:1023F80008B5024802F05CF908BD00BF1C0D0020BA
:102408000120704708B502F0C5FA162303604FF0A3
:10241800FF3008BD08B54FF0FF31FFF7F3FFFEE7C7
:1024280070B50C461646002506E0AFF3008021463D
:1024380001F8010B01350C46B542F6DB304670BD9C
:1024480070B50C461646002504E014F8010B00F0A0
:1024580039F90135B542F8DB304670BD4FF0FF3031
:1024680070474FF400534B600020704701207047BD
:102478000020704710B503460C4A0D490D48006806
:1024880040B10C4800680344521A934206D8094ADE
:10249800136010BD0748084C0460F2E702F07AFAAE
:1024A8000C2303604FF0FF30F3E700BF00C00020AB
:1024B800000400007C0A0020B00D002070470000D6
:1024C80000B587B000230293039304930593009308
:1024D800019315484FF080420260472242608360B2
:1024E8004FF6FF72C2600361836101F0E3FD90B9AA
:1024F8004FF48053029302A90B4801F013FE68B908
:102508000023009301936946074801F08BFE40B908
:1025180007B05DF804FBFFF771FDE9E7FFF76EFD13
:10252800EEE7FFF76BFDF3E7800A00200368B3F1DD
:10253800804F00D0704700B583B003F50433DA69E3
:1025480042F00102DA61DB6903F001030193019BA8
:10255800002211461C2000F037FC1C2000F06CFC07
:1025680003B05DF804FB000008B50A480A4B036095
:102578004FF4E133436000238360C36003610C229E
:1025880042618361C36101F079FF00B908BDFFF7BB
:1025980035FDFBE7D40C00200038014008B50A4897
:1025A8000A4B03604FF41653436000238360C360F3
:1025B80003610C2242618361C36101F05FFF00B9CE
:1025C80008BDFFF71BFDFBE71C0D00200044004081
:1025D80070B588B0002304930593069307930368A6
:1025E800344A934204D0344A934233D008B070BD81
:1025F800324B9A6942F480429A619A6902F48042A5
:102608000092009A9A6942F004029A619B6903F069
:1026180004030193019B4FF400730493022505956D
:1026280003230793264E04A9304600F013FF4FF406
:102638008063049300240594069404A9304600F0AE
:1026480009FF22462946252000F0BEFB252000F080
:10265800F3FBCBE7194BDA6942F40032DA61DA6945
:1026680002F400320292029A9A6942F004029A61D4
:102678009B6903F004030393039B0423049302253B
:102688000595032307930E4E04A9304600F0E2FE99
:102698000823049300240594069404A9304600F006
:1026A800D9FE22462946262000F08EFB262000F07F
:1026B800C3FB9BE700380140004400400010024083
:1026C8000008014010B582B0C4B28DF8044002235E
:1026D800012201A9024801F001FF204602B010BD05
:1026E800D40C002010B50446264B984203D0264B44
:1026F8009C4223D010BD254B1A780D2A0CD0244BB0
:102708001B8813F4706F14D1C3F30B012148425492
:1027180001331F4A138006E01D4A13886FEA4343BA
:102728006FEA5343138001221849164802F01FF933
:10273800DDE743F48043164A1380F4E7164B1A7812
:102748000D2A0CD0154B1B8813F4706F14D1C3F3EA
:102758000B01134842540133104A138006E00F4A14
:1027680013886FEA43436FEA5343138001220A49EF
:10277800054802F0FCF8BDE743F48043074A13809C
:10278800F4E700BFD40C00201C0D0020C80A00206C
:10279800CC0B0020CC0A0020CE0B0020D00C00204F
:1027A800D00B0020FFF78AFE0B480C490C4A002387
:1027B80002E0D458C4500433C4188C42F9D3094AEF
:1027C800094C002301E013600432A242FBD302F05B
:1027D800E7F8FFF759FC704700000020C009002007
:1027E80054E10008C0090020B00D0020FEE70000F9
:1027F80010B504460E4B18784FF47A73B3FBF0F318
:102808000C4A1068B0FBF3F000F024FB68B90F2CF9
:1028180001D901200AE0002221464FF0FF3000F0E4
:10282800D3FA054B1C60002000E0012010BD00BF5A
:1028380008000020040000200C00002008B5074A0A
:10284800136843F010031360032000F0ABFA002074
:10285800FFF7CEFFFFF78AFD002008BD00200240E9
:10286800034A1168034B1B780B441360704700BF81
:10287800640D002008000020014B1868704700BF55
:10288800640D002038B50446FFF7F6FF0546B4F19D
:10289800FF3F02D0044B1B781C44FFF7EDFF401BA1
:1028A800A042FAD338BD00BF08000020704708B521
:1028B800436A9A6A12F0500F1ED19A6A42F4007263
:1028C8009A621A68926802F46022B2F5602F03D007
:1028D8001846FFF7EBFF08BD1A7B002AF8D19A6A61
:1028E80022F480729A629A6A12F4805FF0D19A6A2E
:1028F80042F001029A62EBE71B6A1B6B9847EAE712
:10290800704708B5406AFFF7FBFF08BD704708B578
:10291800406A836A43F040038362C36A43F0040356
:10292800C362FFF7F3FF08BD30B482B00022019202
:1029380090F82420012A00F091800346012280F8B3
:1029480024204A68062A2DD80468606B02EB8202AC
:10295800053A4FF01F0C0CFA02FC20EA0C000D6837
:1029680005FA02F2024362630A68092A3AD91C6826
:10297800E06802EB42021E3A4FF0070C0CFA02FC28
:1029880020EA0C008D6805FA02F20243E2600A6848
:10299800103A012A36D90020002283F8242002B0F8
:1029A80030BC70470C2A0ED80568286B02EB8202EF
:1029B800233A1F24944020EA04000C6804FA02F227
:1029C80002432A63D0E70568E86A02EB8202413ACB
:1029D8001F24944020EA04000C6804FA02F202431F
:1029E800EA62C1E71C68206902EB42024FF0070C5B
:1029F8000CFA02FC20EA0C008D6805FA02F2024388
:102A08002261C4E71A681648824205D09A6A42F0E1
:102A180020029A620120BFE7906810F4000F1BD1D2
:102A2800906840F4000090600A68102A01D00020E5
:102A3800B2E70C4A12680C49A1FB0212920C02EB95
:102A480082025200019202E0019A013A0192019A2F
:102A5800002AF9D100209FE700209DE702209EE789
:102A6800002401400400002083DE1B4330B583B0FE
:102A78000023019303689A6812F0010F33D10446CA
:102A88009A6842F001029A60184B1B68184AA2FB28
:102A980003239B0C019302E0019B013B0193019BE3
:102AA800002BF9D1FFF7E8FE054623689B6813F071
:102AB800010F16D1FFF7E0FE431B022BF5D923685F
:102AC8009B6813F0010FF0D1A36A43F01003A362CF
:102AD800E36A43F00103E362002384F82430012011
:102AE80002E0002000E0002003B030BD0400002018
:102AF80083DE1B43F8B504460D4616460168444874
:102B0800814259D0434B994256D094F82430012B36
:102B18007CD0012384F824302046FFF7A7FF07461E
:102B280000286ED1A16A21F4706121F0010141F4FD
:102B38008071A1622268374B9A4244D0A36A23F479
:102B48008013A362536813F4806F05D0A36A23F43B
:102B5800405343F48053A362A36A13F4805F48D0C0
:102B6800E36A23F00603E362002384F82430236A2F
:102B7800294A9A62236A294ADA62236A284A1A6326
:102B880023686FF002021A602268936843F4807326
:102B98009360216833462A464C31206A00F0D0F908
:102BA80023689A6802F46022B2F5602F24D09A68EC
:102BB80042F480129A6027E0154B5B6813F4702F7B
:102BC800A3D0012720E0A3F580635B6813F4702F7E
:102BD800B4D0A36A43F48013A3620D4B5B6813F46B
:102BE800806FB9D0A36A23F4405343F48053A3629F
:102BF800B2E70023E362B7E79A6842F4A0029A605A
:102C080002E0002384F824303846F8BD0227FBE7A9
:102C18000024014000280140B72800080B290008BB
:102C28001729000838B503689A6812F0010F01D116
:102C3800002038BD04469A6822F001029A60FFF726
:102C48001BFE054623689B6813F0010F13D0FFF79E
:102C580013FE431B022BF5D923689B6813F0010F61
:102C6800F0D0A36A43F01003A362E36A43F00103C0
:102C7800E3620120DDE70020DBE70000002800F028
:102C8800888070B50446836A002B52D02046FFF72F
:102C9800C9FFA36A13F0100375D1002873D1A26A83
:102CA80022F4885222F0020242F00202A262626812
:102CB800266839498E4242D0E1690A43217B42EABB
:102CC8004102A568B5F5807F02D0012D3ED01D4692
:102CD80094F814C0BCF1010F3BD0716821F469412C
:102CE800294371602568AE682C4931401143A960B9
:102CF800A168B1F5807F01D0012902D12369013B88
:102D08001B052568E96A21F470010B43EB6223680F
:102D18009968234B0B409A422CD0A36A23F01203E4
:102D280043F01003A362E36A43F00103E362012066
:102D38002EE0C36280F82430FEF750FCA6E7E16974
:102D4800B1F5402FB9D14FF40021B6E74FF48075A3
:102D5800BEE731B9A169013945EA413141F400655D
:102D6800BBE7A16A41F02001A162E16A41F00101DB
:102D7800E162B2E70023E362A36A23F0030343F0AE
:102D88000103A36204E0A36A43F01003A3620120D5
:102D980070BD0120704700BF003C0140FDF7E1FF16
:102DA800FE0E1FFF074AD36823F4E0631B041B0CC5
:102DB800000200F4E060034343F0BF6343F40033D0
:102DC800D360704700ED00E000B5194BDB68C3F332
:102DD8000223C3F1070CBCF1040F28BF4FF0040C09
:102DE80003F1040EBEF1060F18D9033B4FF0FF3E66
:102DF8000EFA0CFC21EA0C0199400EFA03F322EAC0
:102E08000303194300280BDB0901C9B200F1604034
:102E180000F5614080F800135DF804FB0023E5E746
:102E280000F00F000901C9B2024B1954F4E700BFC2
:102E380000ED00E014ED00E0002807DB00F01F02C1
:102E4800400901239340024A42F82030704700BFEE
:102E580000E100E00138B0F1807F0BD24FF0E023B1
:102E68005861054AF02182F8231000209861072252
:102E78001A6170470120704700ED00E030B401246A
:102E8800056CAC40C56B6C60046863604368102BCC
:102E980005D0036899600368DA6030BC704703683E
:102EA8009A600368D960F8E700283AD010B402465F
:102EB80000681D4B984229D81C4B03441C49A1FBB0
:102EC80003131B099B0013641A4BD363022382F874
:102ED8002130016821F47F5121F030015368946852
:102EE8002343D468234314692343546923439469CF
:102EF8002343D46923430B430360002090630123D9
:102F080082F8213082F8200010BC70470A4B034435
:102F18000749A1FB03131B099B001364074BD363E9
:102F2800D4E70120704700BF07040240F8FFFDBF47
:102F3800CDCCCCCC00000240F8FBFDBF0004024021
:102F480038B5044690F82000012832D0012084F8D2
:102F5800200094F82100C0B2012804D0002384F88E
:102F68002030022038BD022084F821000020A06310
:102F78002568286820F0010028602046FFF77EFFBA
:102F8800E36A5BB12268136843F00E03136022689A
:102F9800136843F0010313600020E3E72268136815
:102FA80023F0040313602268136843F00A031360D4
:102FB800EDE70220D6E790F82130DBB2022B06D0ED
:102FC80004238363002380F82030012070470268BF
:102FD800136823F00E0313600268136823F00103DB
:102FE8001360036CC16B012202FA03F34B6080F893
:102FF8002120002380F820301846704708B590F843
:103008002130DBB2022B03D004238363012008BDE7
:103018000268136823F00E0313600268136823F034
:103028000103136003684C4A93424ED9783A93429D
:1030380024D01432934230D0143293422FD0143219
:1030480093422FD0143293422FD0143293422FD070
:10305800143293422FD002F5627293422ED014326A
:1030680093422DD0143293422CD01432934202D082
:103078004FF4803203E04FF4805200E00122374BD6
:103088005A60012380F82130002380F82030436BF8
:10309800002B5ED098470020B9E71022EFE74FF4E5
:1030A8008072ECE74FF48052E9E74FF48032E6E7AC
:1030B8004FF48012E3E74FF08072E0E70122DEE789
:1030C8001022DCE74FF48072D9E7254A934224D0D6
:1030D8001432934225D01432934224D014329342AE
:1030E80024D01432934224D01432934224D0143280
:1030F800934224D002F56272934223D01432934251
:1031080022D01432934221D01432934202D04FF489
:10311800803203E04FF4805200E00122114B5A60E4
:10312800AFE71022FAE74FF48072F7E74FF48052C6
:10313800F4E74FF48032F1E74FF48012EEE74FF0F6
:103148008072EBE70122E9E71022E7E74FF480728B
:10315800E4E700205BE700BF800002400004024073
:10316800080002400000024038B5C36B1A680468C2
:103178002568016C04238B40134200F09B8015F0F6
:10318800040F00F09780236813F0200F03D1236801
:1031980023F00403236003689A4A934246D9783A95
:1031A800934224D01432934228D01432934227D029
:1031B8001432934227D01432934227D014329342C8
:1031C80027D01432934227D002F56272934226D058
:1031D8001432934225D01432934224D014329342AD
:1031E80002D04FF4802203E04FF4804200E0042232
:1031F800854B5A60C36A03B1984738BD4022F7E748
:103208004FF48062F4E74FF48042F1E74FF48022F4
:10321800EEE74FF48002EBE74FF08062E8E7042224
:10322800E6E74022E4E74FF48062E1E7774A934219
:1032380024D01432934225D01432934224D014322D
:10324800934224D01432934224D01432934224D08F
:103258001432934224D002F56272934223D014327E
:10326800934222D01432934221D01432934202D096
:103278004FF4802203E04FF4804200E00422644BC4
:103288005A60B7E74022FAE74FF48062F7E74FF455
:103298008042F4E74FF48022F1E74FF48002EEE732
:1032A8004FF08062EBE70422E9E74022E7E74FF4BA
:1032B8008062E4E702238B40134200F0AB8015F0F4
:1032C800020F00F0A780236813F0200F06D12368AF
:1032D80023F00A032360012380F821300368494A58
:1032E80093424BD9783A934224D0143293422DD04A
:1032F800143293422CD0143293422CD0143293427D
:103308002CD0143293422CD0143293422CD002F594
:10331800627293422BD0143293422AD014329342D1
:1033280029D01432934202D04FF4003203E04FF414
:10333800005200E00222344B5A60002380F820300B
:10334800836A002B3FF459AF984756E72022F2E7EB
:103358004FF40072EFE74FF40052ECE74FF40032FD
:10336800E9E74FF40012E6E74FF00072E3E70222C4
:10337800E1E72022DFE74FF40072DCE7234A9342BB
:1033880024D01432934225D01432934224D01432DC
:10339800934224D01432934224D01432934224D03E
:1033A8001432934224D002F56272934223D014322D
:1033B800934222D01432934221D01432934202D045
:1033C8004FF4003203E04FF4005200E00222104BA9
:1033D8005A60B2E72022FAE74FF40072F7E74FF499
:1033E8000052F4E74FF40032F1E74FF40012EEE731
:1033F8004FF00072EBE70222E9E72022E7E74FF4FB
:103408000072E4E780000240000402400800024025
:1034180000000240082303FA01F111423FF4EDAE27
:1034280015F0080F3FF4E9AE236823F00E0323607C
:10343800026CC16B012303FA02F24A60836380F8CD
:103448002130002380F82030036B002B3FF4D5AEE9
:103458009847D2E670B582B00024A446B0E0874D04
:10346800AA4210D007D9864DAA420CD005F580355E
:10347800AA4208D013E0A5F58015AA4203D005F5A5
:103488007025AA4207D18A68002A62D0012A5BD037
:103498004361082403E0A5F58015AA42F3D0BEF1E4
:1034A800FF0F58D80646BEF1FF0F56D84FEA8C02D8
:1034B80033680F25954023EA050304FA02F2134303
:1034C80033604B6813F0805F78D06E4B9A6942F096
:1034D80001029A619B6903F001030193019B4FEA82
:1034E8009C02951C684B53F825600CF003039D0063
:1034F8000F23AB4026EA0306644B984233D003F50A
:103508008063984200F0988003F58063984200F049
:10351800958003F58063984200F0928003F58063FC
:10352800984200F08F8003F58063984219D00623F3
:103538001AE0CC68B3E7CC680434B0E7CC68083448
:10354800ADE7CC680C34AAE703610824A7E7002498
:10355800A5E70424A3E7061DA5E7ACF1080292003D
:10356800A6E7052300E00023AB4033430232464D73
:1035780045F822304B6813F4801F65D0444A93689D
:1035880043EA0E0393604B6813F4001F62D0404A6D
:10359800D36843EA0E03D3604B6813F4003F5FD04F
:1035A8003B4A536843EA0E0353604B6813F4803F69
:1035B8005CD0374A136843EA0E0313600CF1010C20
:1035C8000A6832FA0CF357D0012303FA0CF302EA23
:1035D800030E33EA0202F1D14A68122A3FF63FAFDE
:1035E800122A3FF65CAF01A555F822F08F34000887
:1035F8003B3500084535000857350008A734000852
:10360800A7340008A7340008A7340008A734000826
:10361800A7340008A7340008A7340008A734000816
:10362800A7340008A7340008A7340008A734000806
:103638003F3500084B350008012395E7022393E73F
:10364800032391E704238FE7114A936823EA0E03C3
:10365800936098E70E4AD36823EA0E03D3609BE78A
:103668000B4A536823EA0E0353609EE7084A13681F
:1036780023EA0E031360A1E702B070BD0000221018
:103688000000311000100240000001400008014015
:10369800000401408368194201D0012070470020CE
:1036A80070470AB101617047090401617047C36836
:1036B80001EA030221EA030141EA0241016170477C
:1036C80008B5054B5B69034200D108BD024B586140
:1036D800FEF774FCF9E700BF0004014082B0084B14
:1036E8001B68084AA2FB03235B0A00FB03F3019350
:1036F80000BF019B5A1E0192002BF9D102B07047FE
:1037080004000020D34D6210002800F0F18170B54C
:1037180082B00446036813F0010F2CD0994B5B6804
:1037280003F00C03042B1DD0964B5B6803F00C03CD
:10373800082B12D06368B3F5803F41D0002B55D1D8
:1037480003F1804303F504331A6822F480321A60C7
:103758001A6822F480221A6037E08A4B5B6813F4F7
:10376800803FE7D0874B1B6813F4003F03D06368A2
:10377800002B00F0BF81236813F0020F75D0814B36
:103788005B6813F00C0F5FD07E4B5B6803F00C0393
:10379800082B54D02369002B00F08A807A4B012231
:1037A8001A60FFF769F80546764B1B6813F0020F9D
:1037B80075D1FFF761F8401B0228F5D903209EE177
:1037C800704A136843F480331360636843B3FFF7A8
:1037D80053F805466B4B1B6813F4003FCBD1FFF73A
:1037E8004BF8401B6428F5D9032088E1B3F5A02FD6
:1037F80009D0644B1A6822F480321A601A6822F4DD
:1038080080221A60E1E703F18043A3F53C331A688C
:1038180042F480221A601A6842F480321A60D4E7AF
:10382800FFF72AF80546574B1B6813F4003FA2D050
:10383800FFF722F8401B6428F5D903205FE1514BBC
:103848005B6813F4803FA5D14E4B1B6813F0020F41
:1038580003D02369012B40F04F814A4A136823F0B3
:10386800F803616943EAC1031360236813F0080F82
:1038780033D0A369002B5CD0434B0122C3F88024CA
:10388800FEF7FAFF05463F4B5B6A13F0020F21D1A2
:10389800FEF7F2FF401B0228F5D903202FE1394A31
:1038A800136823F0F803616943EAC1031360DCE796
:1038B800354B00221A60FEF7DFFF0546314B1B68C7
:1038C80013F0020FD1D0FEF7D7FF401B0228F5D91D
:1038D800032014E10120FFF701FF236813F0040F10
:1038E80000F09680274BDB6913F0805F34D1254BBD
:1038F800DA6942F08052DA61DB6903F080530193A0
:10390800019B0125214B1B6813F4807F26D0E368B7
:10391800012B3DD0002B53D103F1804303F5043331
:103928001A6A22F001021A621A6A22F004021A6262
:1039380033E0154B0022C3F88024FEF79DFF0546AF
:10394800104B5B6A13F0020FC7D0FEF795FF401BC0
:103958000228F5D90320D2E00025D3E70B4A1368E3
:1039680043F480731360FEF787FF0646074B1B6816
:1039780013F4807FCBD1FEF77FFF801B6428F5D935
:103988000320BCE0001002400000424200700040EA
:103998005F4A136A43F001031362E36833B3FEF727
:1039A8006BFF06465A4B1B6A13F0020F2FD1FEF726
:1039B80063FF801B41F288339842F3D903209EE0CD
:1039C800052B09D0524B1A6A22F001021A621A6AB0
:1039D80022F004021A62E0E74D4B1A6A42F0040230
:1039E8001A621A6A42F001021A62D6E7FEF744FF29
:1039F8000646474B1B6A13F0020F08D0FEF73CFF40
:103A0800801B41F288339842F3D9032077E0E5B967
:103A1800E369002B72D03E4A526802F00C02082A71
:103A280056D0022B17D03B4B00221A66FEF724FF14
:103A38000446374B1B6813F0007F47D0FEF71CFF86
:103A4800001B0228F5D9032059E0314AD36923F035
:103A58008053D361DCE72F4B00221A66FEF70CFF78
:103A680005462B4B1B6813F0007F06D0FEF704FFBA
:103A7800401B0228F5D9032041E0236AB3F5803FB3
:103A88001AD023494B6823F47413226A606A0243EC
:103A980013434B601F4B01221A66FEF7EDFE0446E6
:103AA8001B4B1B6813F0007F0ED1FEF7E5FE001BD1
:103AB8000228F5D9032022E0154A536823F400337D
:103AC800A1680B435360DCE7002018E0002016E0F3
:103AD800012B16D00E4B5B6803F48031226A9142A9
:103AE80011D103F47013626A93420ED1002006E0EC
:103AF80001207047012002E0012000E0002002B010
:103B080070BD0120FBE70120F9E70120F7E700BFBE
:103B180000100240000042420F4B5B6803F00C02A9
:103B2800082A01D00D487047C3F383420C49885CCA
:103B380013F4803F0BD0084B5B68C3F34043094A3A
:103B4800D35C064A02FB00F0B0FBF3F07047064B6B
:103B580003FB00F0704700BF0010024000127A001B
:103B680014DD000824DD000800093D00002800F0ED
:103B7800A08070B50D460446524B1B6803F007033E
:103B88008B420BD24F4A136823F007030B43136091
:103B9800136803F007038B4240F08D80236813F00D
:103BA800020F17D013F0040F04D0474A536843F4A8
:103BB800E0635360236813F0080F04D0424A536847
:103BC80043F460535360404A536823F0F003A168FC
:103BD8000B435360236813F0010F31D06368012B46
:103BE80020D0022B25D0384A126812F0020F64D078
:103BF80035494A6822F0030213434B60FEF73CFE46
:103C08000646314B5B6803F00C036268B3EB820F26
:103C180016D0FEF731FE801B41F288339842F0D966
:103C2800032045E0284A126812F4003FE0D1012041
:103C38003EE0254A126812F0007FD9D1012037E012
:103C4800204B1B6803F00703AB420AD91D4A1368CF
:103C580023F007032B431360136803F00703AB42F9
:103C68002DD1236813F0040F06D0174A536823F4A4
:103C7800E063E1680B435360236813F0080F07D033
:103C8800114A536823F46053216943EAC10353601E
:103C9800FFF742FF0C4B5B68C3F303130B4AD35C7B
:103CA800D8400B4B18600B4B1868FEF7A1FD00209D
:103CB80070BD012070470120FAE70120F8E70120D4
:103CC800F6E700BF0020024000100240FCDC0008BC
:103CD800040000200C000020014B1868704700BF4A
:103CE8000400002008B5FFF7F7FF044B5B68C3F337
:103CF8000223034AD35CD84008BD00BF001002402D
:103D08000CDD000808B5FFF7E7FF044B5B68C3F359
:103D1800C223034AD35CD84008BD00BF001002404C
:103D28000CDD000870B582B00446036813F0010F7B
:103D380036D03F4BDB6913F0805F49D13C4BDA69E1
:103D480042F08052DA61DB6903F080530193019BF2
:103D58000125384B1B6813F4807F3BD0344B1B6A1A
:103D680013F4407313D0626802F440729A420ED082
:103D78002F4A136A23F440702F490126C1F8406482
:103D88000026C1F84064106213F0010F36D1284AAA
:103D9800136A23F4407361680B431362002D3ED10C
:103DA800236813F0020F06D0214A536823F44043D6
:103DB800A1680B435360236813F0100F34D01C4ADA
:103DC800536823F4800361690B43536000202CE09F
:103DD8000025BEE7174A136843F480731360FEF7A3
:103DE8004BFD0646134B1B6813F4807FB6D1FEF7D4
:103DF80043FD801B6428F5D9032016E0FEF73CFD3F
:103E080006460B4B1B6A13F0020FC0D1FEF734FDB8
:103E1800801B41F288339842F3D9032005E0D36927
:103E280023F08053D361BBE7002002B070BD00BF10
:103E380000100240007000400000424210B4036AC3
:103E4800046A24F001040462846924F0F00C4CEA4A
:103E5800021223F00A030B438261036210BC70470D
:103E680010B4036A046A24F010040462846924F418
:103E7800704C4CEA023223F0A00343EA011382613A
:103E8800036210BC7047836823F070030B4343F050
:103E980007038360704770477047704770477047E3
:103EA80010B5044603681A6912F0020F11D0DA68D7
:103EB80012F0020F0DD06FF002021A61012303778E
:103EC80003689B6913F0030F70D0FFF7E6FF002328
:103ED800237723681A6912F0040F12D0DA6812F0F7
:103EE800040F0ED06FF004021A61022323772368AF
:103EF8009B6913F4407F5FD02046FFF7CEFF002375
:103F0800237723681A6912F0080F12D0DA6812F0C2
:103F1800080F0ED06FF008021A6104232377236874
:103F2800DB6913F0030F4ED02046FFF7B6FF0023DE
:103F3800237723681A6912F0100F12D0DA6812F08A
:103F4800100F0ED06FF010021A6108232377236830
:103F5800DB6913F4407F3DD02046FFF79EFF002326
:103F6800237723681A6912F0010F03D0DA6812F078
:103F7800010F36D123681A6912F0800F03D0DA686E
:103F880012F0800F34D123681A6912F0400F03D061
:103F9800DA6812F0400F32D123681A6912F0200F44
:103FA80003D0DA6812F0200F30D110BDFFF774FF8C
:103FB8002046FFF773FF8AE72046FFF76DFF20468C
:103FC800FFF76CFF9BE72046FFF766FF2046FFF7E9
:103FD80065FFACE72046FFF75FFF2046FFF75EFF6F
:103FE800BDE76FF001021A612046FFF754FFC1E7F1
:103FF8006FF080021A61204600F053F9C3E76FF0B2
:1040080040021A612046FFF74AFFC5E76FF0200219
:104018001A61204600F044F9C7E700000368244A03
:10402800904212D002F5006290420ED0B0F1804F5B
:104038000BD0A2F59832904207D002F580629042E8
:1040480003D002F58062904203D123F070034A68DE
:104058001343174A904212D002F5006290420ED0E4
:10406800B0F1804F0BD0A2F59832904207D002F5FC
:104078008062904203D002F58062904203D123F41B
:104088004073CA68134323F080034A6913430360EB
:104098008B68C3620B688362054B984203D003F5B3
:1040A8000063984201D10B690363012343617047A0
:1040B800002C014040B310B5044690F83D30F3B1F0
:1040C800022384F83D30214651F8040BFFF7A6FF80
:1040D800012384F8463084F83E3084F83F3084F871
:1040E800403084F8413084F8423084F8433084F812
:1040F800443084F8453084F83D30002010BD80F805
:104108003C30FEF713FADBE70120704710B48468EF
:1041180024F47F4C42EA03220A4342EA0C028260FA
:1041280010BC704790F83C30012B78D010B504468D
:10413800012380F83C30022380F83D300268936800
:1041480023F47F4323F0770393600B68602B4CD0F4
:1041580029D8402B54D00CD9502B22D1CA68496891
:104168000068FFF76BFE50212068FFF78CFE0020E7
:1041780005E0202B0DD009D9302B0AD001200123CE
:1041880084F83D30002384F83C3010BD0BB1102B6F
:1041980005D119462068FFF776FE0020EFE70120D9
:1041A800EDE70120EBE7B3F5805F34D0B3F5005FAE
:1041B8000CD1CB684A6889680068FFF7A7FF2268B6
:1041C800936843F4804393600020D8E7702B24D190
:1041D800CB684A6889680068FFF798FF2268936887
:1041E80043F0770393600020C9E7CA68496800680C
:1041F800FFF736FE60212068FFF745FE0020BEE786
:10420800CA6849680068FFF719FE40212068FFF76F
:104218003AFE0020B3E70020B1E70120AFE7022013
:104228007047000090F83C30012B34D010B40123C3
:1042380080F83C30022380F83D3003685A689C6857
:1042480022F0700C0A6842EA0C025A600368134AAA
:10425800934212D002F5006293420ED0B3F1804F20
:104268000BD0A2F59832934207D002F580629342B0
:1042780003D002F58062934204D124F080044A6896
:1042880014439C60012380F83D30002380F83C30C3
:10429800184610BC70470220704700BF002C014030
:1042A80070477047026802F10C0353E8003F23F49B
:1042B80090730C3242E800310029F3D1026802F110
:1042C800140353E8003F23F00103143242E800319D
:1042D8000029F3D1036B012B05D0202380F842304D
:1042E800002303637047026802F10C0353E8003FA0
:1042F80023F010030C3242E800310029F3D1ECE737
:1043080090F84130DBB2212B01D00220704783683E
:10431800B3F5805F17D0036A5A1C02621A780368E3
:104328005A60C38C9BB2013B9BB2C3844BB90268F1
:10433800D36823F08003D3600268D36843F0400356
:10434800D360002070470369002BE4D1036A1B88FF
:104358000268C3F308035360036A02330362E0E7A9
:1043680010B504460268136923F44053C1680B432F
:10437800136183680269134342691A430168CB6871
:1043880023F4B05323F00C031343CB600268536942
:1043980023F4407381690B4353610268134B9A42BB
:1043A80020D0FFF79FFC024602EB820202EB82025A
:1043B80063689B00B2FBF3F20D48A0FB0231490988
:1043C800642303FB11231B013233A0FB03235B0986
:1043D80003F0F00202EB011203F00F03216813440B
:1043E8008B6010BDFFF78EFC0246DDE70038014008
:1043F8001F85EB512DE9F84305460F4616469946A9
:10440800DDF820802C68246837EA04030CBF4FF0DD
:10441800010C4FF0000CB4452DD1B8F1FF3FF1D09D
:10442800B8F1000F05D0FEF727FAA0EB09004045C8
:10443800E8D92A6802F10C0353E8003F23F4D0734B
:104448000C3242E800310029F3D12A6802F1140342
:1044580053E8003F23F00103143242E800310029F9
:10446800F3D1202385F8413085F84230002385F8C0
:104478004030032000E00020BDE8F88360B310B5A9
:10448800044690F8413013B3242384F8413022685D
:10449800D36823F40053D3602046FFF761FF2268F6
:1044A800136923F4904313612268536923F02A03A4
:1044B80053612268D36843F40053D36000206064DA
:1044C800202384F8413084F84230606310BD80F8BE
:1044D8004030FEF77DF8D7E7012070472DE9F0411D
:1044E80082B01E4690F84130DBB2202B4BD10446F7
:1044F8000D46904600294AD00AB9012044E000231D
:104508004364212380F84130FEF7B6F90746A4F842
:104518002480A4F82680A368B3F5805F02D04FF00A
:1045280000080FE02369FBB14FF000080AE038F8F3
:10453800023B2268C3F308035360E28C92B2013A4B
:1045480092B2E284E38C9BB28BB100963B46002288
:1045580080212046FFF74EFFD8B9002DE7D015F887
:10456800012B23685A60E8E7A8460025EAE7009689
:104578003B46002240212046FFF73CFF58B9202344
:1045880084F8413000E0022002B0BDE8F08101204B
:10459800FAE70320F8E70320F6E7704708B5016853
:1045A800CA6822F04002CA60202280F84120FFF742
:1045B800F4FF002008BD704708B5406A0023C38592
:1045C800C384FFF7F8FF08BD704790F84230DBB2AC
:1045D800222B69D18368B3F5805F4FD0826AB3F527
:1045E800805F04D0002B56D10369002B53D1036898
:1045F8005B681370836A01338362C38D9BB2013B8E
:104608009BB2C385002B51D100B583B00268D36833
:1046180023F02003D3600268D36823F48073D36047
:104628000268536923F001035361202380F8423064
:1046380000234363036B012B33D100230363026818
:1046480002F10C0353E8003F23F010030C3242E858
:1046580000310029F3D103681A6812F0100F06D050
:10466800002201921A6801925B680193019B818D77
:10467800FFF7AAFF002003B05DF804FB0269002AD7
:10468800ACD1826A03685B68C3F308031380836A4A
:1046980002338362B1E703685B6803F07F0313703A
:1046A800A8E7FEF71FF8E5E70220704700207047EB
:1046B80030B583B0044602681368D068516913F0B6
:1046C8000F0505D113F0200F02D010F0200F19D1DB
:1046D8002DB111F0010119D110F4907F16D1216B81
:1046E80001297DD013F0800F03D010F0800F40F027
:1046F800188113F0400F03D010F0400F40F01581DF
:1047080003B030BD2046FFF760FFF9E713F0010F53
:1047180006D010F4807F03D0626C42F0010262641C
:1047280013F0040F04D019B1626C42F00202626403
:1047380013F0020F04D019B1626C42F004026264F3
:1047480013F0080F07D010F0200F00D119B1626CD8
:1047580042F008026264626C002AD1D013F0200F84
:1047680002D010F0200F29D123685B6903F04003C1
:10477800626C12F0080F00D163B32046FFF792FD78
:1047880023685B6913F0400F20D0226802F11403FC
:1047980053E8003F23F04003143242E80031002977
:1047A800F3D1E36B73B1634A5A63E06BFEF726FCFF
:1047B8000028A5D0E06B436B9847A1E72046FFF798
:1047C80004FFD1E72046FFF7F6FE99E72046FFF7FA
:1047D800F2FE95E72046FFF7EEFE002363648FE7BD
:1047E80013F0100F3FF47EAF10F0100F3FF47AAFC4
:1047F800002301931368019353680193019B536944
:1048080013F0400F51D0E26B13685B689BB2002B2A
:104818003FF476AFA18D99427FF672AFE385936935
:10482800202B37D0226802F10C0353E8003F23F411
:1048380080730C3242E800310029F3D1226802F17A
:10484800140353E8003F23F00103143242E8003117
:104858000029F3D1226802F1140353E8003F23F042
:104868004003143242E800310029F3D1202384F8B0
:10487800423000232363226802F10C0353E8003F0F
:1048880023F010030C3242E800310029F3D1E06B29
:10489800FEF791FB02236363A18DE38D9BB2C91AD6
:1048A80089B22046FFF790FE2AE7A18DE38D9BB2DF
:1048B800C91A89B2E38D9BB2002B3FF421AF0029BE
:1048C8003FF41EAF226802F10C0353E8003F23F4C3
:1048D80090730C3242E800300028F3D1226802F1CC
:1048E800140353E8003F23F00103143242E8003078
:1048F8000028F3D1202384F8423000232363226860
:1049080002F10C0353E8003F23F010030C3242E895
:1049180000300028F3D1022363632046FFF754FEDA
:10492800EEE62046FFF7ECFCEAE62046FFF736FE07
:10493800E6E600BFC145000881628285C285002382
:104948004364222380F84230036923B10268D368A4
:1049580043F48073D3600268536943F001035361E1
:104968000268D36843F02003D3600020704708B57D
:1049780090F84230DBB2202B08D149B10AB90120A6
:1049880008BD00230363FFF7D7FFF9E70220F7E725
:104998000120F5E7014B1868704700BF10000020A0
:1049A80070B50D4E0D4D761BB61006D0002455F887
:1049B800043B01349847A642F9D1094E094D09F044
:1049C80061F8761BB61006D0002455F8043B013474
:1049D8009847A642F9D170BD48E1000848E10008AF
:1049E80050E1000848E10008830730B548D0541E5C
:1049F800002A3FD00346CAB201E0013C3AD303F88B
:104A0800012B9D07F9D1032C2DD9CDB245EA0525F7
:104A18000F2C45EA054536D9A4F1100222F00F0CF7
:104A280003F1200EE6444FEA121C03F1100242E99A
:104A3800045542E9025510327245F8D10CF10102D1
:104A480014F00C0F03EB021204F00F0C13D0ACF1AE
:104A5800040323F003030433134442F8045B934232
:104A6800FBD10CF003042CB1CAB21C4403F8012B8F
:104A78009C42FBD130BD64461346002CF4D1F9E7C3
:104A880003461446BFE71A46A446E0E70FB400B54C
:104A9800074A83B004AB106853F8042B816801936C
:104AA80001F0BAFF03B05DF804EB04B0704700BF33
:104AB800100000200EB430B504466FF000459CB0DD
:104AC8000B4A1FAB0B49059253F8042B086802A93F
:104AD800CDE9013407950495069400F04BFA0022BD
:104AE800029B1A701CB0BDE8304003B0704700BF8D
:104AF8000802FFFF1000002020F0030110F003005F
:104B0800C0F1000051F8043B00F1040C4FEACC0C52
:104B18006FF000021CBF22FA0CF213434FF0010C95
:104B28004CEA0C2C4CEA0C4CA3EB0C0222EA0302D4
:104B380012EACC1204BF51F8043B0430F4D0C2F19D
:104B4800000102EA0102B2FA82F2C2F11F0200EB8E
:104B5800D20070472DE9F04F012B1D4681460F46C4
:104B68009046ADF21C4D40F24781012300219C463E
:104B78004FF0FF341A4606E019460122A3EB040C55
:104B88008B189D4210D908EB0400805C18F803606C
:104B98008642F1D300F081804FF0010C62460C464A
:104BA80061448B189D42EED8CDF808C04FF0010C37
:104BB80000204FF0FF366146634606E018460121A3
:104BC800A3EB060C43189D420FD908EB010218F815
:104BD80003E0925D9645F1D865D04FF0010C61462F
:104BE8000646604443189D42EFD8013604F1010B94
:104BF800B34502D8B346CDF808C005AB0DF2144250
:104C080043F8045F9342FBD1002D00F0FA806C1E3C
:104C180006AE08F1FF3208EB0400019612F8011FF6
:104C2800D3432B444344904246F82130F6D1029EA8
:104C38005A46404608EB060105F0DAFB002840F02A
:104C480083800BF1FF3305938246AB1B0646039323
:104C580009EB060E1EF80430019A52F8233043B3CC
:104C6800BAF1000F04D0029A9342039A38BF134650
:104C78004FF0000A1E447B1BB342E9D209EB070040
:104C880045F4006106F0C2F807447B1BB342DFD24B
:104C980000200DF21C4DBDE8F08F94450ABF01229B
:104CA800013261446CE761450ABF401801310121B6
:104CB80088E7D3455B4638BF5346A34214D2591EF2
:104CC8009A1941444A4402E00133A3420CD212F833
:104CD800010B11F801CF8445F6D0CBF1010216443F
:104CE8004FF0000A1E44C6E7D345059B7DD90BEB60
:104CF80006024A4408EB0B01CDF810B002E0534518
:104D080016D0034612F8010D11F801CD03F1010B7D
:104D1800844503F1FF30F2D05B46DDF810B00AF1AC
:104D2800010A9A450BD8029BDDF80CA01E44A2E7A5
:104D380053460AF1010A9A45DDF810B0F3D97046D6
:104D48000DF21C4DBDE8F08FA5EB0B035B4538BF9A
:104D58005B4600260BF1FF3202920133CBF10102D0
:104D6800039245F4006A049309EB060E1EF804301A
:104D7800019A52F823306BB11E447B1B9E42F3D933
:104D880009EB0700514606F041F807447B1B9E4299
:104D9800EAD97DE7A34513D202990BEB06025B46DD
:104DA8004A44414402E00133A34209D212F8010BFC
:104DB80011F801CF8445F6D0039A16441E44DCE767
:104DC800BBF1000F13D00BEB0601494408EB0B02B3
:104DD80002E0013B43450AD0134611F8010D12F8D1
:104DE80001CD8445F5D0049BC6E75B4697E770463E
:104DF8000DF21C4DBDE8F08F01234FF0000B02931C
:104E0800FBE606AB4FF0FF34019310E72DE9F041C4
:104E18000D460978044690B0002953D06A78002AD4
:104E280000F08380AB78002B50D0E878002800F0A1
:104E380083802B79002B57D02846FFF75DFE064666
:104E4800204646F4007105F0E1FF86425CD8FE2E4C
:104E580000F28780801B271840226846711CFFF7E4
:104E6800C3FD7EB16A1E5FFA86FC901912F8013FF5
:104E780003F03F034033A91A6B446144824203F8AC
:104E8800401CF3D1013CA35D03F03F0340336B4466
:104E980013F8400C0444A74203D23AE04444A74222
:104EA80037D314F806C020460CF03F0C0CF1400331
:104EB8000DEB030C324629461CF8408C05F098FA95
:104EC8000028EBD1204610B0BDE8F081007842EA16
:104ED800014200E00C4640EA0343611CA0B19A423B
:104EE8006078F7D1013CEDE722786AB1296809BA00
:104EF80001E099421ED0204642EA032314F8012F0C
:104F0800002AF6D1994215D00024204610B0BDE8F9
:104F1800F081BB5DB819002BF6D04FF4006105F0A5
:104F280075FF0744BC42ADD9EEE710B0BDE8F041CB
:104F380005F0D2BEC41EC5E7120442EA016242EA85
:104F480003230146207800E02C4640EA0102651C54
:104F580011020028D8D0B3EB022F6078F4D1023CBC
:104F6800B0E7014633462A46204610B0BDE8F04176
:104F7800FFF7F0BD2DE9F04FD5B00C460C919146E6
:104F88000E930A9004F0C4FE036818461793FFF7BF
:104F9800B3FDA3891690190603D52369002B00F0E9
:104FA8008F8700242BAB224698464D46CDE92944ED
:104FB8002893129400230024CDE914342B78CDE9EA
:104FC8001922CDE91B2218920892002B00F0CE81FD
:104FD800AA4604E01AF8013F002B00F00981252BAE
:104FE800F8D1BAEB050640F007819AF80030002B9B
:104FF80000F0BC8100234FF0FF324FF02B09202432
:105008001F469AF8016007920AF1010A8DF8833069
:1050180009930AF1010AA6F120035A2B00F2208114
:10502800DFE813F0CA021E011E01C5021E011E019F
:105038001E01A3021E011E016A00F3021E0147029F
:10504800D9021E01D4025B005B005B005B005B00C1
:105058005B005B005B005B001E011E011E011E0160
:105068001E011E011E01B0011E010B027A00B001D3
:10507800B001B0011E011E011E011E019E021E018B
:105088001E01B6001E011E011E0119021E014C025E
:105098001E011E013F071E011E011E011E011E01E9
:1050A8001E011E011E01B0011E010B027C00B00191
:1050B800B001B00191027C0075001E0184021E013E
:1050C8007002B8005E0275001E01190272001C070A
:1050D8001E011E011F071E0172000022A6F13003E7
:1050E8001AF8016B02EB820203EB4202A6F13003CD
:1050F800092BF5D909928EE70E9B53F8042B002A49
:1051080009920E93C0F2D2819AF8006081E79AF86A
:10511800006047F020077CE747F01007BA060E9BAF
:1051280040F17D81073323F007031A465B6852F884
:10513800084B99460E92002BC0F27F85079B0133DE
:1051480001F0398054EA090327F0800B00F0058547
:105158000A2C79F1000380F0938701235F463034ED
:105168008DF84F410B930DF24F15079A0B990023B9
:105178008A42B8BF0A4606929DF883200D930F9382
:1051880013931093002A7CD0069B0133069378E092
:1051980047F0100717F0200900F032810E9B073303
:1051A80023F00703D3F8049053F8084B0E93002319
:1051B80027F4806B00228DF88320079A511C00F099
:1051C8002A8254EA09012BF0800740F02382002A42
:1051D80041F02B80002B40F0C5841BF001030B939A
:1051E80000F0548530230DF24F158DF84F31BCE790
:1051F800BAEB050600F0BA802A9BC8E9005633448A
:105208002A93299B0133072B299305DC08F1080809
:10521800089B33440893E8E60C990A9828AA05F0F5
:1052280007FE80B90DF1AC08F2E70C990A9828AA94
:1052380005F0FEFD002800F08A800D9B1BB10D993A
:105248000A9804F041FC0C9B9B8913F0400F089BC3
:1052580018BF4FF0FF330893089855B0BDE8F08F9A
:10526800002E00F08380012300228DF8EC60069365
:105278003BAD8DF883200B930D9207920F921392FA
:10528800109217F0020302D006990231069117F026
:10529800840B07D109990698A1EB0009B9F1000F11
:1052A80000F336832A9C82B10122C8F80420299A87
:1052B800013401320DF18301072A2A942992C8F892
:1052C800001000F3698308F108087BB10223C8F8CD
:1052D8000430299B0234013321AA072B2A942993ED
:1052E800C8F8002000F36C8308F10808BBF1800FB0
:1052F80000F02E82079B0B9AA3EB020BBBF1000F69
:1053080000F37182FB0500F1C5810B9BC8F80050C2
:105318001C44C8F80430299B2A940133072B29938D
:1053280000F3EA8208F108087B0705D5099B069A6D
:105338009D1A002D00F35083DDE9083206998A4250
:10534800ACBF9B185B180893002C7FF46EAF00234A
:1053580029930D9B1BB10D990A9804F0B5FB55468E
:105368000DF1AC082B78002B7FF432AE2A9B002B72
:105378003FF469AF0C9C0A98214628AA05F058FD0D
:10538800A38962E70E9B073323F00702F2E8023491
:10539800CDE91434DDE9143424F000449946184664
:1053A8000E9221464FF0FF32B64BFBF751FF002813
:1053B80040F09684484621464FF0FF32B14BFBF748
:1053C80029FF002840F08C84DDE914010022002325
:1053D800FBF716FF002840F0A6879DF883200021E0
:1053E8000320A94DA94B27F080070D910690472E61
:1053F800C8BF1D4607910B900F9113911091C1E6FC
:1054080017F0100340F0628417F0400200F07B8729
:105418000E9A994652F8044B0E92A4B2C7E653F876
:10542800044B0E93FB0600F141847D0640F13B845A
:1054380044F3C0394B4624B27DE6012000220E9B7E
:10544800069053F8041B3BAD8DF883208DF8EC10C3
:105458000E930B9010E74FF000090E9C079B54F831
:10546800045B8DF88390002D00F0EE865A1C00F046
:1054780060851A464946284604F072FF0D900028B8
:1054880001F09E800D9B9DF883205B1B0B9323EA04
:10549800E373CDF81C900E940693CDF83490CDF8B4
:1054A8003C90CDF84C90CDF840906BE6099B5B4260
:1054B80009939AF8006047F00407AAE547F0100B33
:1054C8001BF0200900F0AA830E9B073323F0070383
:1054D8001A4652F8084BD3F804900E92012369E655
:1054E800302278260E9B8DF8842053F8044B684AA6
:1054F8000E934FF00009022347F0020B8DF88560E8
:10550800189257E6BD0600F1D683FC0600F1938693
:10551800780600F15D87B90540F18D860E9B0899E4
:1055280053F8042B554611700E931BE79AF8006048
:105538006C2E03BF9AF8016047F020070AF1010AB0
:1055480047F0100765E59AF80060682E03BF9AF8DF
:10555800016047F400770AF1010A47F0400758E56F
:105568009AF8006047F0080753E50A9E304604F0B1
:10557800CFFB436818461B93FFF7BEFA0346304635
:105588001C931E4604F0C4FB83681993002E3FF455
:10559800BBAD199B002B3FF4B7AD199B1B78002BB3
:1055A8003FF4B2AD9AF8006047F4806731E59AF8A5
:1055B800006047F001072CE59DF88330002B7FF44D
:1055C800A3AD9AF800608DF8834022E59AF8006050
:1055D80047F080071DE5524612F8016B2A2E01F0AC
:1055E800EB81A6F13003092B924698BF002201F205
:1055F80003801AF8016B02EB820203EB4202A6F168
:105608003003092BF5D9079205E59AF800608DF863
:105618008390FEE4BB46012B3FF49AAD022B54ADB8
:1056280012D1189A04F00F03D35C240944EA0974D0
:105638004FEA191905F8013D54EA0903F2D154ABB0
:105648005B1B5F460B9390E504F00703E40844EA0C
:1056580049744FEAD909303354EA09012A4605F852
:10566800013DF1D11BF0010FE9D0302BE7D03023F9
:10567800023A05F8013C54AB9B1A5F4615460B935A
:1056880073E500BFFFFFEF7F2CDD000830DD000869
:105698003CDD0008652E40F3E980DDE914010022B5
:1056A8000023FBF7A3FD002800F0D2810123C8F8EE
:1056B8000430299BBF4A01330134072B2A942993CC
:1056C800C8F8002000F37A8508F10808229B129A8E
:1056D800934280F2D782169B179A1C44C8E900238C
:1056E800299B2A940133072B299300F3DD8308F1C2
:1056F8000808129B5D1E002D7FF716AE102D41F392
:105708004181DFF8B492224649461026B946299BC2
:105718000F46DDF828B00C9C05E008F10808103D9C
:10572800102D40F3588501331032072BC8E9007655
:10573800CDE92932F1DD2146584628AA05F078FB43
:1057480000287FF47AADDDE929320DF1AC08E6E7EF
:10575800099B069AA3EB020BBBF1000F7FF7CAADBA
:10576800BBF1100F41F30580DFF84C92414620460B
:10577800A8464C461023299A0C9DDDF8289006E08F
:10578800ABF1100BBBF1100F01F1080119DD01326B
:105798001030072AC1E90043CDE92920F0DD294668
:1057A800484628AA05F044FB00287FF446ADDDE909
:1057B8002920ABF1100BBBF1100F4FF010032BA9F0
:1057C800E5DC4546A1468846044601325C44072A82
:1057D800CDE92924C8F80090C8F804B000F318856A
:1057E80008F1080886E5BBF1100F40F39785DFF84C
:1057F800C89141462046A8464C461023299A0C9D3C
:10580800DDF8289006E0ABF1100BBBF1100F01F1A9
:10581800080119DD01321030072AC1E90043CDE93A
:105828002920F0DD2946484628AA05F001FB002872
:105838007FF403ADDDE92920ABF1100BBBF1100FAC
:105848004FF010032BA9E5DC4546A14688460446DF
:1058580001325C44072ACDE92924C8F80090C8F829
:1058680004B000F3CE8108F108084BE5129B012B28
:1058780040F37E810123299E01341E44072EC8F877
:1058880000502A94C8F80430299600F3E18108F101
:105898000808169B0136179A1C44072EC8E90023EE
:1058A800CDE9296400F3E18108F108080022DDE967
:1058B80014010023FBF79AFC002840F07681129B24
:1058C8000136013B01351C44072EC8F800502996C3
:1058D800C8F804302A9400F35B8108F108081A9B81
:1058E80001361C44C8F80430072E24ABCDE92964DE
:1058F800C8F800307FF716AD0C990A9828AA05F069
:1059080097FA00287FF499AC2A9C0DF1AC080BE5B6
:10591800B9F1100F40F35086DDE929214046CDE961
:105928001D36B84610244F460C9EA9460A9D04E031
:10593800103F102F00F1080016DD01321F4B103107
:10594800072AC0E90034CDE92921F1DD314628468E
:1059580028AA05F06DFA00287FF46FACDDE929214B
:10596800103F102F2BA8E8DC4D46DDE91D36B9465F
:105978004746804609EB010401321049072ACDE960
:105988002924C8F80490C8F8001000F3C3839DF8D0
:10599800832008F1080886E40C990A9828AA1D9320
:1059A80005F046FA00287FF448AC2A9C1D9B0DF1AF
:1059B800AC088AE464DB00087CDD00086CDD0008C4
:1059C8000C990A9828AA05F033FA00287FF435AC18
:1059D8002A9C0DF1AC0889E4102D40F3C4861026EA
:1059E800299B0A9FDDF8309004E0103D102D08F146
:1059F800080817DD0133B84A1034072BC8E9002618
:105A0800CDE92934F1DD4946384628AA05F010FACF
:105A180000287FF412ACDDE92934103D102D0DF17A
:105A2800AC08E7DC0133AC4A2C44072BCDE9293418
:105A3800C8F80450C8F800207FF77EAC0C990A9883
:105A480028AA05F0F5F900287FF4F7AB2A9C73E43F
:105A58002299002940F36F83DDF84090129B994505
:105A6800A8BF9946B9F1000F0BDD299B4C440133BF
:105A7800072BC8E900592A94299300F31D8508F1DA
:105A88000808109EB9F1000FA8BFA6EB0906002E62
:105A980000F32582DDF840B07805AB4400F15F8261
:105AA800229B129A934202DBF90740F17684169AF8
:105AB80017991444C8E90012299A2A940132072A2E
:105AC800299200F3138508F10808129AAE18A6EB7C
